:400000000080002011000000D1000000D1000000144A80B5144B1268144F1A60F7B1144E002556F80C4C56F8080C56F8102C234638B1043A52F8041F43F8041B191B88420E
:40004000F8D156F8040C1A4620B142F8045BD11A8842FAD1013F06F11006E2D102F078FC00F038F8FA460040BC76004001000000382B000010B5054C237833B9044B13B183
:400080000448AFF300800123237010BD2881FF1F00000000AC290000084B10B51BB108480849AFF300800848036803B910BD074B002BFBD0BDE81040184700BF000000006C
:4000C000AC2900002C81FF1F0881FF1F00000000FEE700BF2DE9804899B062B6DFF868B39BF80050002D78D102F02AFCBE4ABF491378074643F0010313700B78BC4CBD4841
:40010000012602F5E35243F001034FF002080B700B32267080F800801378A4F5E85403F07F03093C1370284601F058FF2378B24A03F0F90323701378304603F0DF031370E1
:4001400023783343237001F049FF282001F046FF4046AA4B1A7802F07F021A701A7802F0BF021A7023780343237001F037FF2378A349A44A43F00403237038460D701570EE
:4001800002F0E2FBA04A04F1A02411689F48E02383342370C1F89C0011689D486370C1F8A00011689B4804F8023CC1F894001168994804F8133C08651168984804F8123CA9
:4001C00048651168964804F8113C886512689548954903708BF800601167DFF8CCC2934D934C944894490023944ADFF8C0A2DFF8C082DFF8C0922B704FF4000E23704FF4A7
:4002000000160B7010258CF800307A490370202440204FF080778AF80030CDF804C088F8003089F80030C2F800E0176016601560146010600B78824A824D43F0010303263A
:4002400080240B7001202E70147002F071FB6A4A04219BF801301170DDF804C07A494BB97A4B01201A78487002F0F8021A701A7802431A70764ACDF804C0137843F001032E
:40028000137002F05DFB734A137843F01003137002F05AFB70499BF8023001220A80DDF804C069494BB96D4B8A701A7802F0F8021A701A7842F001021A70694ACDF804C058
:4002C000137843F00103137002F03AFB654A137843F01003137002F037FB63499BF8033001220A80DDF804C057494BB95F4BCA701A7802F0F8021A701A7842F001021A70D2
:400300005B4ACDF804C0137843F00103137002F017FB584A137843F01003137002F014FB554A9BF8043001211180DDF804C0002B00F082865149344A0B7816689BF80500C9
:40034000DFF874E14E4F4F4D3C4C022243F080034FF020080B70CEF800203B49776485F80080226048B9484B01201A78487102F0F8021A701A7802431A70444ACDF804C022
:40038000137843F00103137002F0DAFA404A137843F01003137002F0D7FA3E499BF8063001220A80DDF804C027494BB93A4B8A711A7802F0F8021A701A7842F001021A70AE
:4003C000364ACDF804C0137843F00103137002F0B7FA334A137843F01003137002F0B4FA30499BF8073069E0A5430040B54300409D6000400960004012600040F85100408E
:40040000846000408560004008ED00E071240000ED110000B124000035250000F5240000B52400000CE400E065240000AA81FF1FF8E1FF1FFBE1FF1FF9E1FF1F00E100E09E
:4004400008600040286000404481FF1F8765004077650040976500400665004085650040746500409565004004650040896500407965004099650040086500407865004080
:400480005523000001E400E0836400407264004093640040026400408D6400407C6400409D6400400C640040FAE1FF1FFCE1FF1FFDE1FF1FFEE1FF1F80E100E001220A80C8
:4004C000DDF804C0B4494BB9B44BCA711A7802F0F8021A701A7842F001021A70B04ACDF804C0137843F00103137002F029FAAD4A137843F01003137002F026FAAA4A9BF80E
:40050000083001211180DDF804C0002B00F04E85A64AA74913780D68A648A74CA74FDFF8C8E2082143F080032026DFF8A092DFF8A0A2DFF8B88213700160EC643E70CEF811
:400540000010DFF854E29E4FD8F80030002B5FD0DBF80C30002B5BD19A4ADEF81430116840F2FF725B1ADB43C3F30A0393424FD0412B4DDD9CF80030002B49D0924B1A7840
:4005800019F8023003EB43030AEB83035B78002BF6D08E4B985CF022C0B2431E072B8DF81F2032D88A4A4600331802EB8303DA8892B2B2F5007F40F08281DC88854ADB7876
:4005C000C4F500740101A4B20A44019143EA1423E1B2137051706CB17F4D019B0DF11F021D4412F8011B0DF11F03D31A9BB29C422972F6D833180AEB830300225A705A790A
:400600000199744BD2B219448A700123CBF80C30D8F800308BB1DBF8103073B9694ADEF81830516840F2FF725B1ADB43C3F30A03934202D0412B00F3DB80614B1B7823B1F1
:400640003A7800233B70002A74D19CF80030002B3FF47AAF5C4B614A1978535C03EB43030AEB83035B78002B3FF46EAF525C5848D2B253000293134400EB83031B89501E1D
:4006800007289BB200F22E815248170138440578447805F00F0544EA0524023CA4B2A34207D90478437804F00F0443EA0423023B9BB263B15C1EA4B2474D08AE01340196E7
:4006C00034443D442F7A06F8017BA642FAD1029C14440AEB8402002454705279D2B282709DF82020CBF81C30B02A2B4B00F0038140F21B81F02A00F0698340F20681F22A50
:4007000000F0EA83C0F0A583FF2A7FF41CAF0291029B19F8033003EB43030AEB83035B78002BF5D0FF20CDF804C001F001FCDDF804C006E79CF80020002A86D0284A22490A
:4007400013705370254A0B701278D2B2511E072940F2A980214B5B78DBB25A1E072A40F2958099F80030002B3FF46FAF1B4B1B78002B3FF46AAF1B4B1A4A1B78002B3FF41D
:4007800064AF124B1B78082B3FF65FAF134B1B78082B98BF137858E74481FF1F8F6400407F6400409F6400400E6400407B64004008ED00E080E100E0B922000003E400E076
:4007C000F9E1FF1FD081FF1FC281FF1FB881FF1F00E2FF1FFC5F004070600040BC81FF1F88E2FF1F84E2FF1F00E100E0C481FF1F9CF80030002B3FF420AF5B4B1A7819F86A
:40080000023003EB43030AEB83035B78002BF6D0564B9D5CF122EDB26B1E072B8DF81F2030D86B00524A01932B4402EB8303DA8892B2B2F5007F4CD1D8884E4ADB78C0F5DA
:40084000007080B22E01324443EA1023C1B21370517060B1484C0DF11F02344412F8011B0DF11F03D31A9BB298422172F6D8019B00222B440AEB83035A705A793D4BD2B2D2
:4008800033449A700123CBF81030D6E603EB43020AEB8202002151705179364A1B01C9B21A4491705DE702EB42010AEB81014B704979304B1201C9B2134499704AE7DA78B2
:4008C0002C4B01010B44D2B201241A7001915C7082E6DA78274B2E013344D2B201201A705870B7E79DF820200023B02ACBF81C30224B7FF4FDAE9DF821109DF82230204AB5
:4009000003EB01239BB213801BE6B22A00F0C083C0F0B483B32A7FF416AE1A4800214160194901224A605A630BE6A02A00F043822ED9A22A14D00AD3A32A7FF404AE11485B
:4009400000210160104901220A601A63F9E59DF821209DF8223003EB02230C4A1360F0E5084A01231360ECE5C281FF1FB881FF1F00E2FF1FFC5F0040706000404481FF1F46
:4009800054680040ECE1FF1FC881FF1F0C81FF1F002A00F0D881012A7FF4D5AD9DF821009DF823209DF824400291B44D9DF82210586299629DF82500DA629DF826102C60C7
:4009C000AF4C002220606160AE495A619A61C8F800200A60AC491A620A604A60986A596A800001FB00F0D96A01FB00F1914240F3F68004920593029B19F8033003EB4303FD
:400A00000AEB83035B78002BF5D0029A9F4B9B5CF222DBB28DF81F205A1E072A24D89C4A5E00F11802EB8101CA8892B2B2F5007F40F06381CA889748CC78C2F5007292B283
:400A40001901084444EA1224D5B204704570002A40F05B8133440AEB830300225A705A798C4BD2B20B449A708B4B029A9B5C03EB43030AEB83035B78002BF5D0864B8449E8
:400A80009A5CD2B25600B31801EB83031B89511E07299BB200F255817E49170139440C78487804F00F0440EA0420023880B2834207D908784B7800F00F0043EA0023023BFC
:400AC0009BB25BB1581E80B2744C08AD013028443C44277A05F8017B8542FAD132440AEB8202002050705279D2B28A70CBF81C3001230393DBF82830002B3FDD039A18AB04
:400B000000269F18DBF82C30002B32DD06EB4603019300250BEB860EDBF82430002BD8BF002018DD00242046DBF82430DBF82C20391902FB03F306FB0313DBF8242001347C
:400B400002FB0533DBF8242013F8403CA24203EB002080B2E8DC019ADEF814302A4403EBC2234F4A013522F81300DBF82C30AB42D2DCDBF828300136B342C3DCDBF8142001
:400B8000484B01321340002BC0F2D480CBF81430DBF81820434B01321340002BC0F2C380CBF81830DBF82410DBF82C30DBF8282003FB01F3039902FB03133C2B039399DD35
:400BC00005998A6A4B6A920003FB02F2CB6A049903FB02F301318B4204913FF70CAF324A002313605360029B19F8033003EB43030AEB83035B78002BF5D00B20CDF804C014
:400C000001F096F9264B29491A88284E92B20A80274A264F1288274C92B24A80264A27481288274D92B28A80264A0123128892B2CA80254A1188002289B231812349244E7E
:400C4000098889B279812168224FCBF83030CBF83430CBF83830C8F80030CBF80C20CBF8103003600F642A703360044BDDF804C01968194B00293FF464AC2FE08481FF1FEF
:400C8000C881FF1FF4E1FF1FE4E1FF1FB881FF1F00E2FF1FFC5F0040BC81FF1F70600040D881FF1FFF070080D081FF1FD8E1FF1FD891FF1F08ED00E0D8A1FF1F80E100E023
:400CC00000E400E0D8B1FF1FD8C1FF1FD8D1FF1F00E100E0E11000004481FF1F996A01297FF72FAC042125680160C148A4F60614A864227031601A6123E4CC78BD48190114
:400D00000844E4B2012204704270BB480DF11F04084414F8017B0DF11F05651BADB295420772F6D396E6013B6FEA43536FEA5353013335E7013B6FEA43536FEA5353013322
:400D400024E70023D2E6AD4DAD4C2A606A605A619A61C8F800201A62AA4B01251A605A60A94B11461A60A94B104622681D60A84D1564226804241C609564A64BA54C23F83D
:400D8000110001F5006324F8130001F5805201F5C05324F8120024F8130001F5005201F520530131B1F5006F24F8120024F81300E3D1FFF7C6BB9DF821109DF82230964A5F
:400DC00003EB01239BB21380FFF7BBBB0125DBF82C30002B26DD0024DBF82430002BD8BF002113DD0020034618AA1618DBF824202E4402FB0462DBF8241012F8402C013001
:400E000002EB032381429BB2EEDC1946DBF81430804A03EBC42322F81310DBF82C300134A342D9DCDBF814207C4B01321340002BC0F23381CBF81430DBF82420DBF82C1063
:400E4000774B01FB02553C2DC1DD0022DA60FFF778BB0125DBF82C30002B27DD0024DBF82430002BD8BF002113DD0020034618AA1618DBF824202E4402FB0462DBF82410E3
:400E800012F8402C013002EB032381429BB2EEDC1946DBF81830E21C03EBC2235D4A013422F81310DBF82C30A342D8DCDBF818205A4B01321340002B71DBCBF81830DBF8E7
:400EC0002420DBF82C10564B01FB02553C2DC1DD00221A61FFF735BB0126DBF82830002BC8BF002539DDDBF82C30002B30DD05EB45070024DBF82430002BD8BF00211ADD1A
:400F000000200146DBF824E0DBF82C2018AB02FB0EF20344334405FB0233DBF82420013002FB0433DBF8242013F8403C824203EB012399B2E6DCDBF81430E21903EBC223BF
:400F4000344A013422F81310DBF82C30A342D1DCDBF828300135AB42C5DCDBF814202F4B01321340002BC0F2A680CBF81430DBF818202A4B01321340002BC0F29580CBF805
:400F80001830DBF82410DBF82C30DBF8282003FB01F302FB03663C2E214B9EDD55E7013B6FEA43536FEA5353013386E740F6C3131C490B80A2F8063401F0C2FC1A4A13787A
:400FC00043F01003137001F0BFFC184BDDF804C01A7812F0080F04D0154A118819780907FBD4144A012313708BF80830FFF790BAC5230000FC5F004070600040D081FF1F97
:4010000008ED00E0E4E1FF1F8481FF1F80E100E0D1000000D881FF1F50680040FF0700804481FF1F546800409864004068640040946800408864004040F6C31321490B803E
:40104000A2F8083301F07CFC1F4A137843F01003137001F079FC1D4BDDF804C01A7812F0080F04D01A4A118819780807FBD4194A012313708BF80430FFF75CB99DF8212081
:401080009DF8223003EB0223134A5360FFF759BA124A01235360FFF754BA013B6FEA43536FEA53530133C5E6013B6FEA43536FEA5353013363E7013B6FEA43536FEA53530B
:4010C000013352E7506800409A6400406A640040906800408A6400400C81FF1FECE1FF1F374B38481A88384992B202805A88023092B20A809A88354992B202800A68002A74
:401100004AD0334A1268002A41D0324A1268002A3ED1314870B40468304A01342240002A46DB026004682E4A2B4E32F81440244DA4B21C80046804F5006432F81440A4B292
:401140005C80006800F5805032F8100080B298800B68A3B9336803F5C05332F813309BB2EB80336803F5005332F813309BB22B81336803F5205332F813309BB26B81194AED
:4011800070BC136801331360174B01221A607047154B01221A607047DA88A0F5837092B202801A8992B242815A8992B28281A8E7013A6FEA42526FEA52520132B1E700BFB5
:4011C000D8E1FF1F06650040046500408481FF1FC481FF1FC881FF1FD081FF1FFF070080D881FF1FE4E1FF1FF4E1FF1F2DE9F04F934A89B01378DBB2DD0609D51C060AD451
:4012000003F0400202F0FF01002A70D19C064ED409B0BDE8F08F03F00F03012BF8D11378DBB213701378DBB2180600F16883854CA36843B1A2680221834B1170A2681988DD
:4012400000235180A360814A137803F06003202B00F05E81402B00F06281002B00F065817B4903230B700B781D06D1D4744A13781B06CDD47749784B1B780878774903431B
:401280000B7009789942C3D171490C460B781078DBB2000605D42378DBB21370137803F00F0308789842F1D109B0BDE8F08F6C4A1378DBB2042B00F0F980062B00F0EF8016
:4012C000022BD3D1674B604C1D7823885D482B449BB2238011708368002B00F0DC80836801221A70836822885A808160D3E05C4A1378DBB2042B00F0C180062B00F0B4808A
:40130000022BB3D15048574D4E4C2E780188314489B20180208880B2002800F0F68261684A480978C9B201706168013161602188013989B22180218889B2002900F0E282B8
:4013400061680978C9B241706168013161602188013989B22180218889B2002900F0DF8263681B78DBB283706368013363602388013B9BB2238023889BB2002B00F0CD8245
:4013800063681978C9B2C1706168013161602188013989B22180218889B2002900F0C18261680978C9B201716168013161602188013989B22180218889B2002900F04A83EE
:4013C00061680978C9B241716168013161602188013989B22180218889B2002900F0388361680978C9B281716168013161602188013989B22180218889B2002900F0BC83D5
:4014000061680978C9B2C1716168013161602188013989B2218023889BB2002B00F0AE832B7808200C4C0A4923780F2783F08003022623700F701670064B1870287015E78C
:40144000286000406CE2FF1F7CE2FF1F0060004079E2FF1F7AE2FF1F78E2FF1F29600040F8E1FF1FFEE1FF1F844B197831B11978834C41F080010020217018700021814B7A
:4014800011709A683AB19A6801247F4814709A680088508099607D4903230B70E6E6794B9A68002AF7D09A680324EEE7784B76481A78038802F00F02023AD2B213449BB20C
:4014C000704C038023889BB2ABB1FAB1714801E00131DAB16568435C013ADBB22B706368D2B2013363602388013B9BB2238023889BB2002BECD1684B68481A700378634977
:4015000083F080030B2203700A70AFE60022F2E701F058F900283FF4A3AE5C49A3E613781E067FF59DAE53789AE611782380CBB2190600F1F88192F801E05FFA8EFE0EF1B5
:40154000FF320A2A3FF68CAE01A151F822F000BFEB150000611200009F1800006112000057160000611200006112000061120000BD160000611200007D1500004548484C7F
:4015800003792178474AC9B20129DBB292F8265040F0F682022B3FF663AE134493F82C50414EEDB283F830508578EDB283F82C50037900791344C0B2307093F8300093F87A
:4015C0002C30984205D0394B19702378002B40F03683374E2D49314C2F4A06238025002033700B70257010703DE603F00303012B00F0C982C0F0F082022B7FF431AE254B7E
:401600009A7802F0FF06002A7FF42AAE1A7902F07F02531E072B3FF623AE264B0C2404FB023399782448120101F0FE017F259970DE7015545878204900F0FD005870187945
:40164000114407065B7800F1AF83012B0CBF082309238B70BDE70F4BDFF820E09B78144F0A490E4D0C480622DBB2802600248EF800303A700A702E700470F4E5FCE1FF1F3D
:40168000086000406CE2FF1F7CE2FF1F79E2FF1F29600040006000407AE2FF1F78E2FF1FFAE1FF1F8481FF1FFBE1FF1FF9E1FF1FF8E1FF1F00E2FF1FFC5F0040C94B9B78FF
:4016C00003F0FF012BB1C84B012993F826307FF4C7ADDFF8388398F8003099423FF479AFC24BC14DC2480022012488F8001004701A709A70DA701A819A725A705A711A7377
:401700009A73DA739A829A755A735A741A769A76DA761A8483F822205A765A7783F8242083F8262083F827209A8583F82E2083F8252083F8292083F8302083F8322083F8DC
:4017400033201A8783F83A2083F8312083F8352083F83C2083F83E2083F83F20A3F8442083F8462083F83D2083F8412083F8482083F84A2083F84B20A3F8502083F8522040
:4017800083F8492083F84D2083F8542083F8562083F85720A3F85C2083F85E2083F8552083F8592083F8602083F8622083F86320A3F8682083F86A2083F8612083F865207D
:4017C00085F82C2085F8302085F82D2085F8312098F8001000293FF4FCAE98F8000095F82610C0B2A04240F0C882824C824E217801F0FE0121700C2100EB400C01FB0039A3
:4018000003EB8C0C7D495FFA80FA03E00831B14200F0228111F8064C04F07F078742F5D1BCF8087031F804BCBFB25F4511F8087C38BFACF808B02F4411F807BC97F82C700F
:40184000BB45E3D111F8057C14F0800F8CF8044007F0030B8CF8007040F0B381BBF1010F14BF7446052489F80540002489F8014011F8024C04F0F704022CC7D111F9064CEC
:4018800007F00307002CC0F2C081032FBED0C2F340042C4484F838A042F00202B6E703F00303012B00F06F81C0F0BA81022B7FF4D7AC4C4B9A7802F0FF00002A7FF4D0ACF2
:4018C0001B7903F07F035A1E072A3FF6C9AC47490C2202FB031291781B0141F001019170D070517841F002015170127912F0800F434A1A4414BF8D238923937069E6414953
:401900000B70B0E401202B788CE5297808293FF489AD3C490B7013708EE50320F3E71846F1E70420EFE752780A2A3FF699AC01A151F822F0151A000061120000611200007B
:4019400061120000611200006112000083190000611200007519000061120000611900000122204B22801B79274A1344636000F0FFFDCFE5254B01222280636000F0F8FDB8
:40198000C8E5184AD378012B00F02882D378022B00F01082D378032B7FF4BAAD9378002B00F09C821A4B197851B1002101E0187830B11D7801319078C9B281422B44F6D3C6
:4019C000084A917819B19278802A00F03E821A78002A3FF445AC1A782280636000F0C8FD98E500BF006000408481FF1F00E2FF1FF9E1FF1FFDE1FF1FCC2A0000B42A00000B
:401A0000FC5F004079E2FF1FB081FF1FFAE1FF1FB029000013F0030300F0B581022B7FF41FACC24A23801279C14B02F07F020C2101FB0233BF4A9B7802F12801DBB20020DB
:401A400082F8283082F82900616000F091FD61E5062058E7052056E7013009287FF4CBAEB54E012200219975B270B27398F8007095F826005982998AB04C88B200EA0201E7
:401A8000014488B2D883198C9742014489B201EA0200014488B25885998DA94D014489B201EA0200014488B2D886198F18BF0024014489B201EA0200014488B2A3F8420033
:401AC000B3F844102C60014489B201EA0200014488B2A3F84E00B3F85010203E014489B201EA0200014489B2A3F85A10B3F85C000C25014489B201EA0200014489B2A3F86B
:401B00006610B3F868104FF0800E082721E005FB026C9CF804C01CF0800FDFF850C214BF0CF804500CF80470114403EB8101CC880132E4B28471CC88092AC4F30724C471AD
:401B4000CC88E4B20471C988C1F30721417100F016817C4814015100204401EB020C057003EB8C0C9CF805C0BCF1000FCFD1DFF8FCC10CF804E0D7E70720C4E60820C2E68D
:401B800000235B68FFDE69490B79012B3FF668AB8878684A0B79DFF8D8E1134493F83C2069496A4E6A4C22EA000280270620002583F83C208EF80000087037702570FFF78D
:401BC00052BBBBF1010F0CBF07240D2489F80540012489F801404BE6544B9B78012B7FF43FAB5C48DFF888E103785749574E584C03F0FD0306228027002503708EF8002094
:401C00000A7037702570FFF72EBB032F00F0688102F001042C4484F834A042F00102F5E5424B9B78012B7FF41BAB4A48DFF840E103784549454E464C43F00203DAE72378ED
:401C400092F82610DBB2012B40F09480307800F0FF01002800F0CD8001297FF4BAAC013292F82C3003F0FF0C4BBB31483A4C4FF0820E022740260D2580F81BC080F81CE034
:401C80000776068445774176A170018C00F118033248C1F3072180F8201018893049C0B26070D888C0B28871D888C0F30720C871D888C0B20871DB88C3F307234B7192F894
:401CC0002C3003F0FF02002B7FF483AC184B25484FF0030E022740260925012483F8272083F828E083F824709E8583F8295083F82520847003F124019B8D184AC3F3072323
:401D000082F830300A89184BD2B24270CA88D2B29A71CA88C2F30722DA71CA88D2B21A71CA88C2F307225A7153E400BF0060004000E2FF1F8481FF1F20E2FF1F502A000092
:401D400080E2FF1F7060004079E2FF1F78E2FF1F7AE2FF1FFDE1FF1F1C600040FC5F0040906000402C600040A0600040FE5F0040F8E1FF1F00231B7AFFDE5368FFDE5C4B71
:401D8000FF221A7025E402215A4A218011785A4AC9B202F1280082F8281082F82930606000F0E6FBFFF7B6BB012B16BF0D238C708B700EE49378504A92F82620002B7FF49A
:401DC0004FAA4E4B63606368DA7863689B7843EA0223238000F0CCFBFFF79CBB484A4649122391F826106260238000F0C1FBFFF791BB92F82C2002F0FF07002A7FF4E9AB33
:401E00004048414A0D21812603254024C773067405738482417443739370838A3B49C3F307231370838ADBB25370438ADBB28B71438AC3F30723CB71438ADBB20B71438A5B
:401E4000C3F307234B71FFF7C4BB314E03AD0FCE0FC532682F4B2A7000221B781146DBB22D48019305782D4843EA0523019305782B4843EA054301930578222643EA0563F3
:401E8000019310F8013CDBB2029310F8025C43EA05230293C57843EA054302930579164843EA05630325029306714571031D01AEB05C08AF00F00F053D4407EB10100132D9
:401EC00015F8145C10F8140C082AD97059711D71987003F10403EBD1124B78E5124B6FE5124FC2F3800407F804A042F004028DE40A600040FDE1FF1F8481FF1F682A0000FF
:401F0000542A000000E2FF1F0C60004080600040F02A00000301004904010049EC460040020100498881FF1FB029000084E2FF1FF0B5264A83B092F83E308DF8070013443D
:401F400093F83400C0B2431E072B2CD84FEA400CDFF884E00CEB00030EEB8303DA8892B2B2F5007F21D0DA78194B07011C460121D2B23A550C463B4459700DF10706324631
:401F8000144D3D4412F8011B931B9BB2A3422972F8D360440EEB80000023437042790C4BD2B23B449A7003B0F0BD094ADC881546DB78C4F50074A4B2070143EA1423E1B27A
:401FC0003A447B555170002CD7D1E2E78481FF1FFC5F00407060004000E2FF1F00EB4000C00000F0A5BC00BF2DE9F84F864A874B87491A600B68874A43F4007386480B60FC
:402000000023032B94BF50F8231084490133302B42F8041FF5D1824B824C1978824A834B21701A6072B6824A824E1378A6F58A7743F004031370002505EB450307EB4303F4
:40204000B288D3F814010135002100F0A7FC072D06F10606F0D1DFF83CE2DFF83CC200275EF8043F13F0FF0623F0FF0511D007F11053013E03F14700F6B230444633400030
:402080005B001A785978023383425155F9D101373744E645E4D1684A6849137841F2512E43F0020313700B78A2F5863243F002030B70633A1378A1F5863143F04003137017
:4020C00051390A785E4B42F010025E4D0A7093E8070003C55C4B5D492A8007C903C3DFF8BC915B4D1A805B4A442303CD89F800301378594DDFF88CB143F008032860696024
:40210000DFF89CA11370DFF89C9161238BF800304FF019085148524D5249534B4FF0030BAAF800B04FF0000C89F80080A2F5917246464FF0580B4FF0060A4FF05208A0F8C9
:4021400000C085F800B081F800A082F800801A786746464BDFF850C1D2B24FF4E1608CF8002005F29F1521F8DE0CA3F800E001E0032F0DD02A784FF4F07002F0010242EA7C
:40218000470303F0030700F0D3FB013EF0D1FEE7374BDFF818C1374E374D38490027384A4FF007084FF0480E02204FF48079A3F8009083F800808CF8007086F800E01F7088
:4021C0002F70087013782F4843F0030381252E49137005700B782D49DBB203F00700DFF8D080DFF8D0E02A4D08701E09023A4FF0440C0FCA88F800608EF800C007C52B80F3
:402200006760BDE8F88F00BF0004FA050CED00E014ED00E0FC7FFF1F00000000D1000000BC7600400081FF1F0080FF1F08ED00E0E8460040C42A00000350014013500140AD
:40224000D0080048C0510040F0510040DC080048E808004822430040225100408440004086400040004300400F010049204200400440004008400040094000400140004012
:40228000A243004000480040CF0100496E580040B0430040FCFFFF47880000485B0A01408040004082400040A1460040064000406F58004076580040224B1A68002A34D087
:4022C0009A68002A31D019691F4A01310A40002A31DB1A6119691D4A01F5C05103EB4101898A89B2A2F8421B196901F5005103EB4101898A89B2A2F8441B196901F520510B
:4023000003EB4101898A89B2A2F8461BD2F84C1B0131C2F84C1BD2F8541B012906D00C49D2F84C0B4968884200D0704700219960C2F8541B7047013A6FEA42526FEA5252D0
:402340000132C6E7C481FF1FFF0700809CD6FF1F0C81FF1F174B1A68FAB15A68EAB1D968154A01310A40002A1DDBDA60D968134A03EB4101898A89B2A2F83C1BD2F8481BBB
:402380000131C2F8481BD2F8501B012906D00C49D2F8480B0968884200D0704700215960C2F8501B7047013A6FEA42526FEA52520132DAE7C481FF1FFF0700809CD6FF1F1D
:4023C0000C81FF1F224B2348B3F8422B224992B20280B3F8442B92B20A80B3F8461B1F4A89B28181116859B3916831BB10691C4901300140002924DB1161116901F5C051A2
:4024000002EB4101898A89B2A3F8421B116901F5005102EB4101898A89B2A3F8441B116901F5205102EB4102928A92B2A3F8462BD3F84C2B0132C3F84C2B0122C3F8582B6A
:40244000704701396FEA41516FEA51510131D3E79CD6FF1F026400400C640040C481FF1FFF070080014B1B78704700BF8F45004030B40C4B0C4C0D4900220325802083F813
:402480005C2B83F85D2B83F85E2B83F85F2B83F8602B83F8612B83F8622B2570087030BC704700BF9CD6FF1F2860004008600040704700BF0C490D480A780D4B02F0FB021C
:4024C0000A7090F8322093F8882B02F00302012A05D093F88B2B82F0800283F88B2B012283F8892B704700BF0B600040FC5F00409CD6FF1F0C490D480A780D4B02F0FD02DA
:402500000A7090F8222093F87C2B02F00302012A05D093F87F2B82F0800283F87F2B012283F87D2B704700BF0B600040FC5F00409CD6FF1F0B490C480A780C4B02F0FE02DB
:402540000A70827C93F8702B02F00302012A05D093F8732B82F0800283F8732B012283F8712B70470B600040FC5F00409CD6FF1F924A10B4B2F8D03B9BB2002B00F0F0809C
:402580000221002382F85C1B82F8DC3BA2F8E03BD2F8D81B29B1D2F8D81B0B70D2F8D81B4B808749854CC8798B79B2F8D01B43EA002389B28B4238BFA4F8D03B92F8620BDF
:4025C000B2F8E01B7D4B014489B2A2F8E01BB2F8D01B89B2002900F0D880D3F8D40B78490078C0B20870D3F8D40B0130C3F8D40BB3F8D00B013880B2A3F8D00BB3F8D00BE9
:4026000080B2002800F0CB80D3F8D40B0078C0B24870D3F8D40B0130C3F8D40BB3F8D00B013880B2A3F8D00BB3F8D00B80B2002800F0B780D3F8D40B0078C0B28870D3F87F
:40264000D40B0130C3F8D40BB3F8D00B013880B2A3F8D00BB3F8D00B80B2002800F0A380D3F8D40B0078C0B2C870D3F8D40B0130C3F8D40BB3F8D00B013880B2A3F8D00BAE
:40268000B3F8D00B80B200287BD0D3F8D40B0078C0B20871D3F8D40B0130C3F8D40BB3F8D00B013880B2A3F8D00BB3F8D00B80B200287AD0D3F8D40B0078C0B24871D3F8C4
:4026C000D40B0130C3F8D40BB3F8D00B013880B2A3F8D00BB3F8D00B80B2002867D0D3F8D40B0078C0B28871D3F8D40B0130C3F8D40BB3F8D00B013880B2A3F8D00BB3F89E
:40270000D00B80B2002854D0D3F8D40B0078C0B2C871D3F8D41B0131C3F8D41BB3F8D01B013989B2A3F8D01BB3F8D01B89B2002941D093F8623B082192F8DC3B0F2483F0A9
:402740008003022082F8DC3B82F8DD4B82F85C0B82F8DE1B82F8621B01205DF8044B7047022480200F2182F85C4B82F8DC0B82F8DD1B82F8623B82F8DE3B01205DF8044B61
:402780007047042192F8623BD6E793F8620B0828D2D0022083F8DD0B83F85C0BD8E70121F0E70221EEE70321ECE70521EAE70621E8E70721E6E70821E4E700BF9CD6FF1F5C
:4027C0000060004030B4564A137803F00303012B5CD0022B0AD0534B0022D3F8E40B5149825C022A14D0002030BC704712794D4B02F07F0202EB420203EB820202F66C323E
:402800009278D3F8E40BD2B2825C4649022AEAD1434A107991F8E82BC0B202EB420201EB820202F66C329278904268D091F8E92B02EB420201EB820191F86E2B90420CBF91
:402840000120FF2036490A7812F0800F4A7858D1D2B2202A1ED0222AC5D18A7803EB4001A1F8F02B184490F8EC2B062142F002028025002480F8EC2B83F85C1B012083F8DA
:40288000DD1B83F8DC5B83F8DE4BADE71279254BD2B2A2E72449C0EBC0020A440721A3F8D01B1844C3F8D42B90F8EC2B042542F001028024002180F8EC2B83F85C5B83F844
:4028C000DC4BA3F8E01BD3F8D80B164A28B1D2F8D80B0170D2F8D82B51801149114CC8798A79B3F8D01B42EA002289B28A4238BFA4F8D02B0B2283F8DD2B012074E70020B8
:40290000A0E7212A7FF46FAF30BC074AC0EBC00002440721A3F8D01BC3F8D42BFFF728BE006000409CD6FF1F1481FF1F000000000230800803D000BF01380046FCD17047D0
:40294000EFF3108072B6704780F31088704700BF0E4B70B51E460E4C0025E41AA410A54204D056F8253098470135F8E700F0CAF8084B094C1E46E41AA4100025A54204D0D0
:4029800056F8253098470135F8E770BD102B0000102B0000102B0000182B000003460244934202D003F8011BFAE7704700000000040309042C034300790070007200650034
:4029C000730073002000530065006D00690063006F006E0064007500630074006F007200100355005300420055004100520054003803430044004300200043006F006D00F5
:402A00006D0075006E00690063006100740069006F006E00200049006E007400650072006600610063006500260343004400430020004400610074006100200049006E004A
:402A400074006500720066006100630065000000020A00001201000202000008B40432F2010001028001000009024300020101803209040000010202010305240010010498
:402A8000240202052406000105240100010705810340000109040100020A00000407058202400000070503024000000000008103400002000100820240000A0001000302E8
:402AC00040000A0000510040200030510040400000000140001000140140000800400140000A004C01400002005001402000000030313233343536373839414243444546BF
:402B000000000000F8B500BFF8BC08BC9E46704799000000E91F0000F8B500BFF8BC08BC9E46704775000000382B00000881FF1F200000006861000000000000FFFFFFFF92
:402B4000FFFFFFFF00C2010000000800C2010000000800000000000000000000000000000000000000000000000000000000000000000000000000000000000000000000C3
:402B80000000000000000000000000000000000000000000000000000000000000000000000000000000000000000000000000000000000000000000000000000000000015
:402BC00000000000000000000000000000000000000000000000000000000000000000000000000000000000000000000000000000000000000000000000000000000000D5
:402C00000000000000000000000000000000000000000000000000000000000000000000000000000000000000000000000000000000000000000000000000000000000094
:402C40000000000000000000000000000000000000000000000000000000000000000000000000000000000000000000000000000000000000000000000000000000000054
:020000040003F7
:0200000480007A
:40000000014500400352004002640040420201401F03014007050140060701404C0801402F0901405A0A0140330B0140580C01402C0D0140480E0140210F01404514014089
:400040002415014057160140271701405018014029190140041B014007400140094101400D4201400A430140064401400745014002460140074701400548014008490140CC
:40008000024C014007500140025101407E02602C61097C40880D8A0D0D0131013F014104460B480449FF4AFF4BFF4CEF4D554E704F48501C520159045A085B085D115F0109
:4000C00061086308650867086850690A6A406BA86CC06E406FA88E019B01B001B101C105C5C0C6DEC70FC81EC9FFCAFFCBFFCCEACD55CEF2CF48D01CD804D904DA0ADB0AC6
:40010000DC11DD11DF01E108E308E508E708E850E90AEA40EBA8ECC0EE40EFA8020219021A402202274030203F804701480249015188521057405901618862106C026F01A7
:4001400078087F018C208E10C001CC04CE10D080D208D601D80EDE12EA0292509902A202A808AB41E208EE0492509902A202E204E602EE0401010302070809010A040B024E
:400180000D010F0215011602170219021B012501260127022B082D012E082F0630043208330334023504360137083B083F404036410249FF4AFF4BFF4F015018540156041A
:4001C000580459045A045B045C115F056040624064406540668068806A806C806E80C036C102C5ECC702C813C9FFCAFFCBFFCD83CE03CF01D018DA04DF01E040E240E44035
:40020000E540E680E880EA80EC80EE8005100E20160117081D101E311F22264427382E202F2237283E153F8043144724480849064C0850085D015E805F0467407E018740DF
:4002400091019206930496809A209D06A604AA04B604C040C220C4A0CA70CC60CEF0D066D224D6D0D880DE10E2040401060207040C010E020F011401160217021C021E0108
:400280001F08200122022401260628012A023108330434043501360337023A804023410149FF4AFF4BFF4F01501854015604580459045A045B045C115F056040624064400E
:4002C0006540668068806A806C806E8082018508870189108B018F1C951C970299049B01AD1FB31CB401B503C023C105C5ECC620C80BC9FFCAFFCBFFCD83CE03CF01D0188D
:40030000D280D804D904DA04DB04DF01E040E240E440E540E680E880EA80EC80EE800084068009080A021204130A180519801A021E0420802188234A27142D803188371488
:400340003A043B403EA4400142204310462047104D014E014F04562059065A80620276807A048580A602AB80AC04AD01C015C205C40ECA10CC6ACE7AD06ED210D60BD801E2
:40038000DE04EE020001020204010602070208010A020C010E020F0810011202130114011602170418011A021C021E012001220228012A02310433083501360337023A80A8
:4003C000410446B0480849FF4AFF4BFF4CEF4D554E704F48501C5201580459045A0B5B0B5C115D115F0161086308650867086850690A6A406BA86CC06E406FA8C105C5C013
:40040000C6DEC70FC81EC9FFCAFFCBFFCCEACD55CEF2CF48D01CDA0BDB0BDD11DF01E108E308E508E708E850E90AEA40EBA8ECC0EE40EFA8054007580D010E2517221E0187
:400440001FC02440275A370A3C4847014802490151A85720590161A86C026F017B807F809204978099409B209F10A210A602A7A0AB04AE02C0F0C2F0C450CCC0CE50D0800C
:40048000D208D601D80EDE81E610E801140136013E40410446B0480849FF4AFF4BFF4CEF4D554E704F48501C58045A0B5D015F0161086308650867086850690A6A406BA882
:4004C0006CC06E406FA8860187019602A502AA04B201B301B402B502B604BF10C104C5EDC60CC70FC817C9FFCAFFCBFFCCEACD55CEF2CF48D01CD201D804D904DA0BDB0B67
:40050000DC11DD11DF01E108E308E508E708E850E90AEA40EBA8ECC0EE40EFA807100B200E201640172218011D401E2427242F203E04424047014F05531056485F02660876
:4005400067056E406F017B807F408C01C020C224C440CA40CE40D081D680D870DE8102020601320234014105450B480149FF4AFF4BFF4CEF4D554E704F48501C52015804FF
:400580005A085B085C015D115F0161086308650867086850690A6A406BA86CC06E406FA889019801B201B501BE04BF10C104C50DC60EC7CFC835C9FFCAFFCBFFCCEACD5574
:4005C000CEF2CF48D01CD804D904DA08DB08DD11DF01E108E308E508E708E850E90AEA40EBA8ECC0EE40EFA8010A0F0819281F0427043C203D03470248114F0455015648AD
:400600005D016648670468016B027B017C408F049040970899029D28A305B440C00CC240CE20D080D208D680D870DE18E610EA014104450B480149FF4AFF4BFF4CEF4D5546
:400640004E704F48501C5A085D015F0161086308650867086850690A6A406BA86CC06E406FA88401860288018A028C028E019001920293029401960297019C019E029F086E
:40068000A001A202A401A602A801AA02AB04AC01AE02B003B108B304B502B701BA02C105C5C0C6DEC70FC81EC9FFCAFFCBFFCCEACD55CEF2CF48D01CD201D804D904DA08EA
:4006C000DB08DC11DD11DF01E108E308E508E708E850E90AEA40EBA8ECC0EE40EFA8004001280A5212AA18401B0122A9292032894702480249014F085188521059016188DD
:40070000621068026B027B017C408B0492509902A202C007C20DC40FCA04CC0BD080D208D601D80EDE18E280EA02EE020201051C0702131C15041701191F21082301252008
:4007400029102B013303351C360137203F40410446B0480849FF4AFF4BFF4CEF4D554E704F48501C5280580459045A0A5B045D015F0161086308650867086850690A6A40EB
:400780006BA86CC06E406FA89701AF01B701BF40C104C5C0C6DEC70FC81EC9FFCAFFCBFFCCEACD55CEF2CF48D01CD201D904DA09DB09DD11DF01E108E308E508E708E85069
:4007C000E90AEA40EBA8ECC0EE40EFA805021D401F40224024012504270429402C082F603008350237243D0843014701490151A85720590161A86B01750278207E10968037
:400800009B209F04A008AA01AB40C010CAE8CCE2CE40D081D601D80EDE44EA06EE02A801B420B610E84030023280340237803B20CCF0CE103310372097209C02A402A680E2
:40084000AF80CC30EA4053205710840297209C029F30A310A402A680AB10D460E210EE808310840297209C029F30A720AA80E220E640EE20732074088C08DC01DE04E4081F
:400880000001030807148C01AB20C00FE6089B14AF080B440F8083409B10B704C20EEE088B20A720AF30EA40EE40700877808C089B80AB80DC80DE20EA80AB10AF44000362
:4008C00008020C030E0210031A021C0300FF012A3F003F3F3F003F00000000004000000000000000C00000000F00000000000000000000000000000000000000000000000D
:4009000000000000000000000000000000000000000000000000000000000000000000000000000000000000000000000000000000000000000000000000000000000000B7
:400940000000000000000000000000000000000000000000000000000000000000000000000000000000000000000000000000000000000000000000000000000000000077
:400980000000000000000000000000000000000000000000000000000000000000000000000000000000000000000000000000000000000000000000000000000000000037
:4009C00000000000000000000000000000000000000000000000000000000000000000000000000000000000000000000000000000000000000000000000000000000000F7
:0200000490006A
:0400000000004005B7
:0200000490105A
:04000000BC90ACAF55
:0200000490303A
:0200000048EEC8
:0200000490402A
:4000000000000000000000000000000000000000000000000000000000000000000000000000000000000000000000000000000000000000000000000000000000000000C0
:400040000000000000000000000000000000000000000000000000000000000000000000000000000000000000000000000000000000000000000000000000000000000080
:400080000000000000000000000000000000000000000000000000000000000000000000000000000000000000000000000000000000000000000000000000000000000040
:4000C0000000000000000000000000000000000000000000000000000000000000000000000000000000000000000000000000000000000000000000000000000000000000
:0200000490501A
:0C00000000012E16106900012E2A59572D
:00000001FF