:4000000000800020110000008D1100008D110000144A80B5144B1268144F1A60F7B1144E002556F80C4C56F8080C56F8102C234638B1043A52F8041F43F8041B191B884274
:40004000F8D156F8040C1A4620B142F8045BD11A8842FAD1013F06F11006E2D102F034F801F096F8FA460040BC76004001000000B022000010B5054C237833B9044B13B1FD
:400080000448AFF300800123237010BD2081FF1F0000000024210000084B10B51BB108480849AFF300800848036803B910BD074B002BFBD0BDE81040184700BF0000000004
:4000C000242100002481FF1F0881FF1F00000000184B19491A8892B20A805A68E2B19968164A01310A40002A1DDB9A609968144A03EB4101898989B21980D2F844390133DE
:40010000C2F84439D2F84839012B06D00D4BD2F844191B68994200D070470B490023C2F848390B707047013A6FEA42526FEA52520132DAE73C81FF1F04650040FF070080D0
:4001400004F8FF1F0C81FF1F756400402DE9F04F934A89B01378DBB2DD0609D51C060AD403F0400202F0FF01002A70D19C064ED409B0BDE8F08F03F00F03012BF8D11378A5
:40018000DBB213701378DBB2180600F16883854CA36843B1A2680221834B1170A268198800235180A360814A137803F06003202B00F05E81402B00F06281002B00F065812A
:4001C0007B4903230B700B781D06D1D4744A13781B06CDD47749784B1B780878774903430B7009789942C3D171490C460B781078DBB2000605D42378DBB21370137803F091
:400200000F0308789842F1D109B0BDE8F08F6C4A1378DBB2042B00F0F980062B00F0EF80022BD3D1674B604C1D7823885D482B449BB2238011708368002B00F0DC8083687C
:4002400001221A70836822885A808160D3E05C4A1378DBB2042B00F0C180062B00F0B480022BB3D15048574D4E4C2E780188314489B20180208880B2002800F0F682616841
:400280004A480978C9B201706168013161602188013989B22180218889B2002900F0E28261680978C9B241706168013161602188013989B22180218889B2002900F0DF8214
:4002C00063681B78DBB283706368013363602388013B9BB2238023889BB2002B00F0CD8263681978C9B2C1706168013161602188013989B22180218889B2002900F0C18262
:4003000061680978C9B201716168013161602188013989B22180218889B2002900F04A8361680978C9B241716168013161602188013989B22180218889B2002900F0388397
:4003400061680978C9B281716168013161602188013989B22180218889B2002900F0BC8361680978C9B2C1716168013161602188013989B2218023889BB2002B00F0AE8359
:400380002B7808200C4C0A4923780F2783F08003022623700F701670064B1870287015E72860004034020020440200200060004041020020420200204002002029600040BD
:4003C000C0010020C6010020844B197831B11978834C41F080010020217018700021814B11709A683AB19A6801247F4814709A680088508099607D4903230B70E6E6794B91
:400400009A68002AF7D09A680324EEE7784B76481A78038802F00F02023AD2B213449BB2704C038023889BB2ABB1FAB1714801E00131DAB16568435C013ADBB22B70636897
:40044000D2B2013363602388013B9BB2238023889BB2002BECD1684B68481A700378634983F080030B2203700A70AFE60022F2E701F062FD00283FF4A3AE5C49A3E61378E1
:400480001E067FF59DAE53789AE611782380CBB2190600F1F88192F801E05FFA8EFE0EF1FF320A2A3FF68CAE01A151F822F000BF4B050000C1010000FF070000C101000023
:4004C000B7050000C1010000C1010000C10100001D060000C1010000DD0400004548484C03792178474AC9B20129DBB292F86E5940F0F682022B3FF663AE134493F8745920
:40050000414EEDB283F878598578EDB283F87459037900791344C0B2307093F8780993F87439984205D0394B19702378002B40F03683374E2D49314C2F4A06238025002071
:4005400033700B70257010703DE603F00303012B00F0C982C0F0F082022B7FF431AE254B9A7802F0FF06002A7FF42AAE1A7902F07F02531E072B3FF623AE264B0C2404FBE7
:40058000023399782448120101F0FE017F259970DE7015545878204900F0FD0058701879114407065B7800F1AF83012B0CBF082309238B70BDE70F4BDFF820E09B78144FB7
:4005C0000A490E4D0C480622DBB2802600248EF800303A700A702E700470F4E5C40100200860004034020020440200204102002029600040006000404202002040020020DA
:40060000C201002004F8FF1FC3010020C1010020C0010020C8010020FC5F0040C94B9B7803F0FF012BB1C84B012993F86E397FF4C7ADDFF8388398F8003099423FF479AFBE
:40064000C24BC14DC2480022012488F8001004701A709A70DA701A819A725A705A711A739A73DA739A829A755A735A741A769A76DA761A8483F822205A765A7783F8242098
:4006800083F8262083F827209A8583F82E2083F8252083F8292083F8302083F8322083F833201A8783F83A2083F8312083F8352083F83C2083F83E2083F83F20A3F844204A
:4006C00083F8462083F83D2083F8412083F8482083F84A2083F84B20A3F8502083F8522083F8492083F84D2083F8542083F8562083F85720A3F85C2083F85E2083F8552021
:4007000083F8592083F8602083F8622083F86320A3F8682083F86A2083F8612083F8652085F8742985F8782985F8752985F8792998F8001000293FF4FCAE98F8000095F876
:400740006E19C0B2A04240F0C882824C824E217801F0FE0121700C2100EB400C01FB003903EB8C0C7D495FFA80FA03E00831B14200F0228111F8064C04F07F078742F5D1AE
:40078000BCF8087031F804BCBFB25F4511F8087C38BFACF808B02F4411F807BC97F87479BB45E3D111F8057C14F0800F8CF8044007F0030B8CF8007040F0B381BBF1010FC2
:4007C00014BF7446052489F80540002489F8014011F8024C04F0F704022CC7D111F9064C07F00307002CC0F2C081032FBED0C2F340042C4484F880A942F00202B6E703F07B
:400800000303012B00F06F81C0F0BA81022B7FF4D7AC4C4B9A7802F0FF00002A7FF4D0AC1B7903F07F035A1E072A3FF6C9AC47490C2202FB031291781B0141F00101917060
:40084000D070517841F002015170127912F0800F434A1A4414BF8D238923937069E641490B70B0E401202B788CE5297808293FF489AD3C490B7013708EE50320F3E7184698
:40088000F1E70420EFE752780A2A3FF699AC01A151F822F075090000C1010000C1010000C1010000C1010000C1010000E3080000C1010000D5080000C1010000C108000094
:4008C0000122204B22801B79274A1344636001F02FFACFE5254B01222280636001F028FAC8E5184AD378012B00F02882D378022B00F01082D378032B7FF4BAAD9378002B2D
:4009000000F09F821A4B197851B1002101E0187830B11D7801319078C9B281422B44F6D3084A917819B19278802A00F03E821A78002A3FF445AC1A782280636001F0F8F9B4
:4009400098E500BF0060004004F8FF1FC8010020C1010020C5010020442200002C220000FC5F00404102002078010020C20100202821000013F0030300F0B581022B7FF48A
:400980001FACC24A23801279C14B02F07F020C2101FB0233BF4A9B7802F51761DBB2002082F8703982F87109616001F0C1F961E5062058E7052056E7013009287FF4CBAE3F
:4009C000B54E012200219975B270B27398F8007095F86E095982998AB04C88B200EA0201014488B2D883198C9742014489B201EA0200014488B25885998DA94D014489B279
:400A000001EA0200014488B2D886198F18BF0024014489B201EA0200014488B2A3F84200B3F844102C60014489B201EA0200014488B2A3F84E00B3F85010203E014489B237
:400A400001EA0200014489B2A3F85A10B3F85C000C25014489B201EA0200014489B2A3F86610B3F868104FF0800E082721E005FB026C9CF804C01CF0800FDFF850C214BF91
:400A80000CF804500CF80470114403EB8101CC880132E4B28471CC88092AC4F30724C471CC88E4B20471C988C1F30721417100F016817C4814015100204401EB020C05702F
:400AC00003EB8C0C9CF805C0BCF1000FCFD1DFF8FCC10CF804E0D7E70720C4E60820C2E600235B68FFDE69490B79012B3FF668AB8878684A0B79DFF8D8E1134493F884291E
:400B000069496A4E6A4C22EA000280270620002583F884298EF80000087037702570FFF752BBBBF1010F0CBF07240D2489F80540012489F801404BE6544B9B78012B7FF41E
:400B40003FAB5C48DFF888E103785749574E584C03F0FD0306228027002503708EF800200A7037702570FFF72EBB032F00F06B8102F001042C4484F87CA942F00102F5E589
:400B8000424B9B78012B7FF41BAB4A48DFF840E103784549454E464C43F00203DAE7237892F86E19DBB2012B40F09480307800F0FF01002800F0CD8001297FF4BAAC0132A3
:400BC00092F8743903F0FF0C4BBB31483A4C4FF0820E022740260D2580F81BC080F81CE00776068445774176A170018C00F118033248C1F3072180F8201018893049C0B2B6
:400C00006070D888C0B28871D888C0F30720C871D888C0B20871DB88C3F307234B7192F8743903F0FF02002B7FF483AC184B25484FF0030E022740260925012483F82720A0
:400C400083F828E083F824709E8583F8295083F82520847003F124019B8D184AC3F3072382F830300A89184BD2B24270CA88D2B29A71CA88C2F30722DA71CA88D2B21A71D1
:400C8000CA88C2F307225A7153E400BF00600040C801002004F8FF1FE8010020C82100004802002070600040410200204002002042020020C50100201C600040FC5F0040CE
:400CC000906000402C600040A0600040FE5F0040C001002000231B7AFFDE5368FFDE5E4BFF221A7025E402215C4A218011785C4AC9B202F5176082F8701982F87139606047
:400D000001F016F8FFF7B6BB012B16BF0D238C708B700EE49378524A92F86E29002B7FF44FAA504B63606368DA7863689B7843EA0223238000F0FCFFFFF79CBB4A4A484929
:400D4000122391F86E196260238000F0F1FFFFF791BB92F8742902F0FF07002A7FF4E9AB4248434A0D21812603254024C773067405738482417443739370838A3D49C3F3F6
:400D800007231370838ADBB25370438ADBB28B71438AC3F30723CB71438ADBB20B71438AC3F307234B71FFF7C4BB334E03AD0FCE0FC53268314B2A7000221B781146DBB20B
:400DC0002F48019305782F4843EA0523019305782D4843EA054301930578222643EA0563019310F8013CDBB2029310F8025C43EA05230293C57843EA054302930579184846
:400E000043EA05630325029380F84C6980F84D5900F64C1301AEB05C08AF00F00F053D4407EB1010013215F8145C10F8140C082AD97059711D71987003F10403EBD1134BEF
:400E400075E5134B6CE5134FC2F3800407F804A042F004028AE400BF0A600040C501002004F8FF1FE0210000CC210000C80100200C600040806000406822000003010049A2
:400E800004010049EC4600400201004950010020282100004C02002000EB4000C00001F003B900BF2DE9F84F894A8A4B8A491A600B688A4A43F4007389480B600023032BD7
:400EC00094BF50F8231087490133302B42F8041FF5D1854B854C1978854A864B21701A6072B6854A854E1378A6F58A7743F004031370002505EB450307EB4303B288D3F87D
:400F000014010135002101F005F9072D06F10606F0D17B487B49802201F0B8F8DFF854E2DFF854C200275EF8043F23F0FF0513F0FF0311D05E1E07F1105303F14B00F6B21F
:400F400030444A3340005B001A785978023383425155F9D101373744E645E4D16A4941F251290B78694A43F002030B701378684843F0020313700278A1F5863142F040020B
:400F8000027041390A78634D42F01002624B0A70624A03CB2860696003CBEE351060516093E8070003C55E4B5E4E2A805E4A442503CE1D7013785D4DDFF8A8B143F0080370
:400FC000286069605A4E13705A48DFF8B0A15A4D5A4961238BF800304FF0190C4FF0000E0323AAF80030A2F5267286F800C067460380ABF2747B85F800C05823A1F800E027
:4010000052254F494FF0060C1370ABF800E08AF80E3086F87EC280F87C510A78494B4A49D2B24FF4E16086F81F26F0460880474DA3F8009002E0B8F1030F0DD02A784FF437
:40104000F07002F0010242EA480303F0030801F02BF8013FEFD1FEE73D4BDFF824C13D4E3D4D3E4900273E4A4FF007084FF0480E02204FF48079A3F8009083F800808CF833
:40108000007086F800E01F702F7008701378354843F00F0381253449137005700B783349DBB203F00700DFF8DC80DFF8DCE0304D08701E09023A4FF0440C0FCA88F8006068
:4010C0008EF800C007C52B806760BDE8F88F00BF0004FA050CED00E014ED00E0FC7FFF1F000000008D110000BC7600400081FF1F0080FF1F08ED00E0E84600403C2200003D
:4011000080040140300700480350014013500140A043004002510040B0070048C2510040DB040140CC07004822430040125100408240004084400040864000408840004094
:401140000F01004920420040224200402542004004400040084000400940004001400040A243004000480040CF0100496E580040B0430040FCFFFF479000004880400040FB
:40118000064000406F58004076580040FEE700BF2DE9804899B062B6DFF85CB39BF80050002D78D100F088FFBB4ABC491378074643F0010313700B78B94CBA48012602F5B7
:4011C000E35243F001034FF002080B700B32267080F800801378A4F5E85403F07F03093C13702846FFF758FE2378AF4A03F0F90323701378304603F0DF031370237833431D
:401200002370FFF749FE2820FFF746FE4046A74B1A7802F07F021A701A7802F0BF021A70237803432370FFF737FE2378A049A14A43F00403237038460D70157000F040FFFC
:401240009D4A04F1A02411689C48E02383342370C1F89C0011689A486370C1F8A0001168984804F8023CC1F894001168964804F8153C88641168954804F8143CC864116891
:40128000934804F8133C086512689248924903708BF800601167DFF8A4C2904C904D91489149DFF888920023904ADFF89482DFF894A223704FF4000E2B704FF0807789F8D7
:4012C00000304FF400168CF800300424037008250B7010207349CDF804C088F800308AF80030C2F800E0176016601460156010600B787F4A7F4E43F00103032780250B701D
:4013000001203770157000F0CFFE674A9BF8013014707949DDF804C04BB9784B01201A78487002F0F8021A701A7802431A70744ACDF804C0137843F00103137000F0BCFE10
:40134000704A137843F01003137000F0B9FE9BF802306949DDF804C04BB96B4B01201A78887002F0F8021A701A7802431A70674ACDF804C01378664D43F00103137000F04A
:401380009BFE644A137843F01003137000F098FE494B61491C6801232B60544A5F4DE0202564087013605E4A9BF8033000211170DDF804C0002B00F00E845A4ADFF874A1F7
:4013C0001378594E43F08003137000239E46DFF878814948554CCDF808E0D8F80030002B00F0C580DBF80430002B40F0C080504A8368116840F2FF725B1ADB43C3F30A03D3
:40140000934200F0B480412B40F3B1809CF80030002B00F0AC80027B1AF8023003EB430306EB83035B78002BF6D0424B9D5C0F22EDB26B1E072B8DF81F2000F295806B0061
:401440005A190393384B03EB8202D3889BB2B3F5007F40F07581D788374BD278C7F500772901BFB20B44019142EA1722F9B21A705970002F6CD0DFF8D4E0019B0DF11F028B
:401480009E4412F8011B0DF11F03D31A9BB29F428EF80810F5D85BE0A5430040B54300409D6000400960004012600040F8510040846000408560004008ED00E0491C00003F
:4014C0004D010000791C0000FD1C0000BD1C00007D1C00000CE400E03D1C000072010020C0010020C3010020C401002000E100E008600040286000408C0100208565004010
:401500007465004095650040876500407765004080E100E09765004000E400E0D10000007564004076640040C8010020C10100204481FF1F80010020FC5F0040C2010020FE
:40154000C5010020C60100204081FF1F70600040039B00222B4406EB83035A705A790199BA4BD2B219448A700123CBF8043099F800302BB1227800232370002A40F0AF8061
:401580009CF80030002B3FF428AF9BF80C70B04BDDF808E0DB5D03EB430306EB83035B78002B3FF416AFAA4BAA4AD95DC9B24B0001930B4402EB83031A894B1E072B92B2D5
:4015C00000F2E180A14B18460B010393034418781C4602935B7800F00F0043EA0023023B9BB29A4207D92278637802F00F0243EA0222023A92B26AB1974D0398541E2844B5
:401600000546A4B208AB01341C44287A03F8010BA342FAD1019B0B4406EB8303002159705B790299DBB28B709DF82030CBF81020F02B8A4900F0B08040F2B880FD2B00F0BD
:401640001D8140F2F780FE2B00F0A882FF2B7FF4C0AE1AF8073003EB430306EB83035B78002BF6D07E4BFF21DA5D8DF81F10D2B2531E072B3FF6ADAE530099180193754B3A
:4016800003EB8101CB889BB2B3F5007F40F08D82CB886E48C978C3F500739BB21401204441EA1321DDB20170457063B16A4D0DF11F00254410F8017B0DF11F01411A89B2DC
:4016C0008B422F72F6D8019B134406EB830300225A705A795D4BD2B223449A7079E69CF80020002A3FF44CAF5E4A8BF80C3013705370574A1278D2B2511E072937D9544BD3
:401700005B78DBB25A1E072A24D99AF80030002B3FF436AF4E4B1B78002B3FF431AF524B514A1B78002B3FF42BAF4D4B1B78082B3FF626AF464B1B78082B98BF13781FE78A
:40174000D278424B29010B44D2B201271A7001915F7090E603EB430206EB82020021517051793A4A1B01C9B21A449170CDE702EB420106EB81014B704979344B1201C9B25D
:4017800013449970BBE79DF820300022F02BCBF8102032497FF450AF9DF821109DF82230324A03EB01239BB2138012E6012B00F0858067D30F2B7FF40CAE01221BE013F827
:4017C0003FEC13F83E3C03EB0E2E1FFA8EFEDBF80810274C274B24F811E0DBF808101F4801310B40002B15DBCBF80830DBF818301A443C2A1BDCDBF8181018AB0129134493
:40180000DDD118AB134413F83FEC0EEB0E2E1FFA8EFEDCE7013B6FEA43536FEA53530133CBF80830DBF818301A443C2AE3DD00234360CEE5FC2B7FF4CCAD9DF821209DF81E
:40184000223003EB02230C4A1360C2E5FC5F004084010020C8010020706000408C01002080010020500200204C020020486800404881FF1FFF0700800C81FF1FB04A012306
:401880001360A6E5AF4C00202060AF4D8860AF4CC8F800004861AE4903460860024629682070AC4801240460AB480864AB4921F813200133B3F5807FF8D18AE505939DF8DA
:4018C00021009DF822308861CB619DF8233000220B62042301939E4B8A60C8F800204A624A611A601AF8073003EB430306EB83035B78002BF6D09A4BDC5D0F23E4B28DF8F2
:401900001F30631E072B34D863001A190393954B03EB8202D3889BB2B3F5007F40F03281D188914BD278C1F50071200189B20344029042EA1122C8B21A70587069B18B4D71
:40194000029B0DF11F021D4412F8010B0DF11F03D31A9BB299422872F6D8039B0022234406EB83035A705A7902997F4BD2B219448A707F4BDB5D03EB430306EB83035B789C
:40198000002BF6D07A4BDB5DDBB25A00114604921A460393CB18734901EB83031B891146013A072A9BB200F2C9806F4C080104442178627801F00F0142EA0122023A92B220
:4019C000934207D92278637802F00F0243EA0223023B9BB263B1591E89B2644D08AA0131029211440544287A02F8010B8A42FAD10399049A0A4406EB820200215170527968
:401A0000D2B2A270CBF810300120DBF81830002B0EDD411E08AB1944002211F8014FDBF81830013204EB0E2E93421FFA8EFEF4DCDBF8082049494F4B21F812E0DBF80820E1
:401A400001321340002B72DBCBF80830DBF8183018443C28D9DD019B013B01937FF442AF1A46384B1A601AF8073003EB430306EB83035B78002BF6D0394B0B21DA5D8DF88B
:401A80001F10D2B2531E072B31D8530099180193344B03EB8101CB889BB2B3F5007F40F08D80CB883048C978C3F500739BB21401204441EA1321DDB20170457063B12B4D9F
:401AC0000DF11F00254410F8017B0DF11F01411A89B28B422F72F6D8019B134406EB830300225A705A79204BD2B223449A701B4B214A1B889BB21380DBF82030002B66D18A
:401B0000114A0123106800211C4CCBF82830A2F68832CBF82C30C8F80030CBF80410184913600464E020087042F8803C51E4013B6FEA43536FEA5353013385E7002361E7BE
:401B40004C0100204481FF1F08ED00E0756400404801002080E100E08D1100004881FF1F80010020C8010020FC5F00407060004084010020FF0700803C81FF1FD1000000EC
:401B800000E400E0D278254B21010B44D2B21A709DF8142002915A700121D0E620480123002202600B628B6213E4C8781B4914012144C0B2012308704B7077E5C8781749E6
:401BC00014012144C0B2012308704B7077E7154B01221A7094E740F6C31313490B80A2F8933300F069FA114A137843F01003137000F066FA0E4BDDF804C01A7812F0080F7A
:401C000004D00C4A118819780907FBD40A4A012313708BF80330FFF7D0BB00BFFC5F00404C010020756400404868004095640040656400408868004085640040014B1B78F5
:401C4000704700BF8F45004030B4084B084C09490022032580201A705A709A70DA701A715A719A712570087030BC7047C00100202860004008600040704700BF0C490D48E9
:401C80000A780D4B02F0FB020A7090F8322093F82C2002F00302012A05D093F82F2082F0800283F82F20012283F82D20704700BF0B600040FC5F0040C00100200C490D486F
:401CC0000A780D4B02F0FD020A7090F8222093F8202002F00302012A05D093F8232082F0800283F82320012283F82120704700BF0B600040FC5F0040C001002009490A4873
:401D00000A780A4B02F0FE020A70827C1A7D02F00302012A03D0DA7D82F08002DA7501225A7570470B600040FC5F0040C00100207F4A10B4B2F874309BB2002B00F0CF80DA
:401D400002210023117082F88030A2F88430D16F19B1D16F0B70D16F4B807649744CC8798B79B2F8741043EA002389B28B4238BFA4F874309079B2F884106D4B014489B254
:401D8000A2F88410B2F8741089B2002900F0B980986F68490078C0B20870986F01309867B3F87400013880B2A3F87400B3F8740080B2002800F0AD80986F0078C0B2487011
:401DC000986F01309867B3F87400013880B2A3F87400B3F8740080B2002800F09C80986F0078C0B28870986F01309867B3F87400013880B2A3F87400B3F8740080B200285C
:401E000000F08B80986F0078C0B2C870986F01309867B3F87400013880B2A3F87400B3F8740080B2002869D0986F0078C0B20871986F01309867B3F87400013880B2A3F836
:401E40007400B3F8740080B2002868D0986F0078C0B24871986F01309867B3F87400013880B2A3F87400B3F8740080B2002858D0986F0078C0B28871986F01309867B3F856
:401E80007400013880B2A3F87400B3F8740080B2002848D0986F0078C0B2C871996F01319967B3F87410013989B2A3F87410B3F8741089B2C9B39B79082192F880300F24EC
:401EC00083F08003022082F8803082F88140107082F88210917101205DF8044B7047022480200F21147082F8800082F88110937182F8823001205DF8044B704704219379FF
:401F0000DBE798790828D8D0022083F881001870DEE70121F3E70221F1E70321EFE70521EDE70621EBE70721E9E70821E7E700BFC00100200060004030B4514A137803F07B
:401F40000303012B58D0022B0AD04E4B0022D3F888004C49825C022A13D0002030BC70471279484B02F07F0202EB420203EB820210329278D3F88800D2B2825C4149022AC2
:401F8000EBD13F4A107991F88C20C0B202EB420201EB820210329278904261D091F88D2002EB420201EB82018A7C90420CBF0120FF2033490A7812F0800F4A7852D1D2B20B
:401FC000202A1DD0222AC8D18A7803EB4001A1F89420184490F89020062142F002028025002480F890201970012083F8811083F8805083F88240B1E71279224BD2B2A6E786
:402000002149C0EBC0020A440721A3F8741018449A6790F89020042542F001028024002180F890201D7083F88040A3F88410D86F144A18B1D06F0170D26F51801049114C77
:40204000C8798A79B3F8741042EA002289B28A4238BFA4F874200B2283F8812001207DE70020A6E7212A7FF478AF30BC064AC0EBC00002440721A3F874109A67FFF758BED0
:4020800000600040C00100201081FF1F10B5431E0A44914204D011F8014B03F8014FF8E710BD0000000000000230800803D000BF01380046FCD17047EFF3108072B67047E9
:4020C00080F31088704700BF0E4B70B51E460E4C0025E41AA410A54204D056F8253098470135F8E700F0CAF8084B094C1E46E41AA4100025A54204D056F8253098470135F2
:40210000F8E770BD8822000088220000882200009022000003460244934202D003F8011BFAE7704700000000040309042C034300790070007200650073007300200053005F
:4021400065006D00690063006F006E0064007500630074006F007200100355005300420055004100520054003803430044004300200043006F006D006D0075006E0069001D
:4021800063006100740069006F006E00200049006E007400650072006600610063006500260343004400430020004400610074006100200049006E007400650072006600DB
:4021C0006100630065000000020A00001201000202000008B40432F2010001028001000009024300020101803209040000010202010305240010010424020205240600017A
:4022000005240100010705810340000109040100020A00000407058202400000070503024000000000008103400002000100820240000A000100030240000A0020510040CD
:40224000500000000140800400050140000B00140140000800400140000A004C0140000200500140200000003031323334353637383941424344454600000000F8B500BFC2
:40228000F8BC08BC9E46704799000000A50E0000F8B500BFF8BC08BC9E46704775000000B02200000881FF1F180000003881000000000000FFFFFFFF00C2010000000800BA
:4022C000C201000000080000000000000000000000000000000000000000000000000000000000000000000000000000000000000000000000000000000000000000000013
:40230000000000000000000000000000000000000000000000000000000000000000000000000000000000000000000000000000000000000000000000000000000000009D
:40234000000000000000000000000000000000000000000000000000000000000000000000000000000000000000000000000000000000000000000000000000000000005D
:40238000000000000000000000000000000000000000000000000000000000000000000000000000000000000000000000000000000000000000000000000000000000001D
:4023C00000000000000000000000000000000000000000000000000000000000000000000000000000000000000000000000000000000000000000000000000000000000DD
:020000040003F7
:0200000480007A
:40000000014500400452004002640040010101405A0201402D030140130401402D05014049060140260701403A080140180901403A0A0140170B0140010D0140010F014077
:400040003B1401401D150140451601401F1701403B18014018190140051B0140094001400F410140094201400843014001440140034501400546014009470140014801401A
:4000800008490140074C0140024D014007500140025101407E020140600479207C40830D850DE204040106120C010E021401160A18011A061C021E0130043210340836030C
:4000C0003A804025410149FF4AFF4BFF4F01501858045A045C035D015F016040624064406540668068806A806C806E80830289108B048D708E018F089101930299209A01CD
:400100009B049D7C9F01A3F0AD40AF04B10CB370B580B601B703BE40BF40C035C101C5ECC720C823C9FFCAFFCBFFCD83CE03CF01D018D280D401D604D804D904DA04DB04CC
:40014000DC10DD11DF05E040E240E440E540E680E880EA80EC80EE800202044809200D800E2819801C401D801E2A20122120236029012B02300231A038103A013B40401070
:4001800041804580472049064A024E02520253025986620171017A0180048401C0A1C2E2CA09CC0DCE0DD03AD218D60BD801DE08EA044021410349FF4AFF4BFF4F01501840
:4001C0005A045B045F016040624064406540668068806A806C806E80040105580D080F8017081C111D181E48275A2D0237593C103E023F80401041804310450847104D04F4
:400200004F81558057405D045E405F01660268026F017C109310A402AF10C0F0C230C420CA80CCF0CEB0D06ED210D6D0D880DE20E20409040B0219021A011B0429012D0279
:400240002F0C33083506360137013B203F404104470B481049FF4AFF4BFF4CEF4D554E704F48501C5280580459045A095B045C325D035F0161086308650867086850690AA6
:400280006A406BA86CC06E406FA8C105C5C0C6DEC70FC81EC9FFCAFFCBFFCCEACD55CEF2CF48D01CD201DA0ADB0ADD33DF01E108E308E508E708E850E90AEA40EBA8ECC01F
:4002C000EE40EFA80E081D402510261027212D402F0837203D2047024801490151A85708590161A868016B0275027A107D208110870193109D42A204AB02AD08C240CA3011
:40030000CC20CE20D080D208D601D80EDE22E001410446B0480849FF4AFF4BFF4CEF4D554E704F48501C5A085D035F0161086308650867086850690A6A406BA86CC06E4083
:400340006FA8A901B701BF40C105C5C0C6DEC70FC81EC9FFCAFFCBFFCCEACD55CEF2CF48D01CD201D904DA08DB08DD33DF01E108E308E508E708E850E90AEA40EBA8ECC0BB
:40038000EE40EFA820012B0447024801490151A85410590161A868016B0279807E02814082029580A602B440CA04D080D208D601D80EDE18140130013E01410446B048088C
:4003C00049FF4AFF4BFF4CEF4D554E704F48501C58045A085D035F0161086308650867086850690A6A406BA86CC06E406FA8C104C5EDC60CC70FC817C9FFCAFFCBFFCCEA6E
:40040000CD55CEF2CF48D01CD201DA08DB08DD33DF01E108E308E508E708E850E90AEA40EBA8ECC0EE40EFA80B20188029022B80424047014F055310560857805D0266082A
:4004400067056E406F0179807E02C204D081D680D870DE18E204EA04E2042C0130013E01410547B0482049FF4AFF4BFF4CEF4D554E704F48501C520158045A0B5B0B5D2260
:400480005F0161086308650867086850690A6A406BA86CC06E406FA8C104C5EDC60CC70FC817C9FFCAFFCBFFCCEACD55CEF2CF48D01CDA0BDB0BDD22DF01E108E308E508F4
:4004C000E708E850E90AEA40EBA8ECC0EE40EFA810021A80470248014F055002558056085C01600161806608670568016B027A807E808240A280B004B320B680C401D080A0
:40050000D208D680D870DE81EA8009010B061102130119011B0228013304340137033B803E104104470B481049FF4AFF4BFF4CEF4D554E704F48501C580459045A0B5C2027
:400540005D025F0161086308650867086850690A6A406BA86CC06E406FA8C105C5C0C6DEC70FC81EC9FFCAFFCBFFCCEACD55CEF2CF48D01CD201DA0BDB0BDD22DF01E1082C
:40058000E308E508E708E850E90AEA40EBA8ECC0EE40EFA814041F202680272137213F1047024801490151885210540459016188621068016B027A807E8088049310B54019
:4005C000C440CCA0CE20D080D208D601D80EDE81E8400D0131013F014104470B481049FF4AFF4BFF4CEF4D554E704F48501C520159045A0B5B0B5D225F01610863086508AC
:4006000067086850690A6A406BA86CC06E406FA8C105C5C0C6DEC70FC81EC9FFCAFFCBFFCCEACD55CEF2CF48D01CDA0BDB0BDD22DF01E108E308E508E708E850E90AEA4022
:40064000EBA8ECC0EE40EFA824803F4047014802490151A85704590161A86C026F017B807F808B40A010A704B401CE10D080D208D601D80EDE81E020B010B440B780E840D6
:40068000EE80300233403440360838208002CCF0CE10E22003280440062062028308844094209C409F40AA08C0F0D840E480E610EA208010904094209F40A320A602AE203E
:4006C000E220E81086029040A602AB40AF20E240EC10EE8082409640A740AB40502081209640A740D40409200A400F809640A520A740B420C20EEC08B44071047508810423
:400700009908B108DC80DE20E68060017008A008B408D602DC01EC08B401EC08000F080A0A0D0C0810041A041C0400AF010200000100120201000600017C020101400204DD
:4007400000010802022001040010000400700008000000F0000008000000000000000000080C03701080040300000800000001402503000000EC020007FFFFFF00830301BB
:400780001800000001000400040404040200000540004000404080008000800080008000000000000000000000000000000000000F404000400000000005050005000000A7
:4007C0004000003030003000C00000000020200020000000000000000000000000000000000000000000000000000000000000000000000000000000000000000000000009
:4008000000000000000000000000000000000000000000000000000000000000000000000000000000000000000000000000000000000000000000000000000000000000B8
:400840000000000000000000000000000000000000000000000000000000000000000000000000000000000000000000000000000000000000000000000000000000000078
:400880000000000000000000000000000000000000000000000000000000000000000000000000000000000000000000000000000000000000000000000000000000000038
:4008C00000000000000000000000000000000000000000000000000000000000000000000000000000000000000000000000000000000000000000000000000000000000F8
:0200000490006A
:0400000000004005B7
:0200000490105A
:04000000BC90ACAF55
:0200000490303A
:02000000AFDD72
:0200000490402A
:4000000000000000000000000000000000000000000000000000000000000000000000000000000000000000000000000000000000000000000000000000000000000000C0
:400040000000000000000000000000000000000000000000000000000000000000000000000000000000000000000000000000000000000000000000000000000000000080
:400080000000000000000000000000000000000000000000000000000000000000000000000000000000000000000000000000000000000000000000000000000000000040
:4000C0000000000000000000000000000000000000000000000000000000000000000000000000000000000000000000000000000000000000000000000000000000000000
:0200000490501A
:0C00000000012E16106900012E25C046DC
:00000001FF