:400000000080002011000000E1020000E102000008B5044B1A6803F53F5302331A6000F061F900BFFA46004010B5054C237833B9044B13B10448AFF300800123237010BD57
:400040003881FF1F00000000F81E0000084B10B51BB108480849AFF300800848036803B910BD074B002BFBD0BDE81040184700BF00000000F81E00003C81FF1F0881FF1FB5
:400080000000000030B591B062B60020012100F0CBFC00F053FB012000F05EFB00F020FB00F0AEFB01F0B4FE01F05AFE0024884B1B68EBB1864B5B68D3B9854B9B68854AF9
:4000C00012689B1ADB43C3F30C0341F6FF7293420ED0412B0CDD00F0DFFC48B100F06EFE0028FBD00F2000F049FE0122784B5A6000F0D8FC20B100F0CFFC08B100F0F2FD3D
:4001000000F0CAFC0028D2D000F04CFE0028CED0684600F05FFE6E4BD8609DF80030F02B00F0BF8006D8012B27D063B10F2B00F0B080BCE7FE2B00F0BC8000F2C180FD2B82
:4001400000F0B380B3E70025624B1D60604B9D601D601D6100F062FB2A460BE002EB433000255D4921F81050013300E00023002BF4DD0132FF2AF9DD99E79DF80120544B4A
:400180005A619DF802209A619DF80320DA6100259D601D601D621D6138E000F00FFE0028FBD00F2000F0EAFD00F0FCFD0028FBD0684600F00FFE464BD860012123E0CA18DE
:4001C00010A8024412F8402C02EB042294B2013300E000233E4A52699342F0DB3C4B98683D4A22F810409A6801323C4B1340002B05DA013B6FEAC3436FEAD3430133344ACB
:400200009360536919443C29E3DD0135032DC4DD41F6FF722E4B9A6000222E4B1A6000F0CDFD0028FBD00B2000F0A8FD2A4B1A8892B2274B9A8401229A62DA621A60002207
:400240005A6000F0DDFA32E7CA1810A8024412F8402C02EB042294B2013300E000231C4A52699342F0DB1A4B98681B4A22F810409A680132194B1340002B05DA013B6FEA7E
:40028000C3436FEAD3430133114A93605369194401E0012100243C29E0DD00220C4B5A6005E7002001F07EFD01E70122084B1A63FDE6074B00221A630122DA619A62F6E655
:4002C00000F07CFD0028FBD0FF2000F057FDEEE65481FF1F940100209481FF1FFF1F0080FEE700BF08B5104E104D16E029686B68AC68002204E051F8040B43F8040B04328A
:40030000A242F8D1E868002203E0002143F8041B04328242F9D11035013E002EE6D101F0B1FDFFF7AFFEFEE701000000C020000008B5124A124B1A60124A136843F400739A
:40034000136000230AE0032B03D80F4A52F8231000E00E490E4A42F8231001332F2BF2D90C4B1A780C4B1A70094A0C4B1A6000F0B5F800220A4B1A6008BD00BF0004FA05C6
:400380000CED00E014ED00E000000000E10200000080FF1FBC7600400481FF1F08ED00E00081FF1FFEE700BFF0B40022174611E050F82760F3B226F0FF0608E001EB420517
:4003C00011F812406D78A5550132013BDBB2002BF4D101371A2FEBD9F0BC7047064B1B78DBB203F00701054A11701B09013213704422034B1A707047CF0100496E58004005
:400400007658004008B50A46002101F06CFD08BD38B50024264B1C80582202331A70032202331A80192502331D70062203F27A231A705222A3F580731A701E4B1B78DBB2C0
:400440001D4A13704FF4E1621C4B1A8041F25122023B1A800CE01A4B1B7803F0010343EA440404F003044FF4F07000F0B9F8013D0DB1032CEFD115B90320FFF793FF114A40
:400480004FF4807313800723137000230E490B7048200231087013700532137002220B4B1A700B4A137843F00303137038BD00BF804000400F010049A14600402242004009
:4004C00025420040044000400640004001400040A243004008B501F0FBFC08BD38B572B62D4A137843F00403137000240CE02B4963001A1952000A4423445B00C8589188B2
:40050000FFF780FF0134E4B2062CF0D94FF090402349FFF749FF234A137843F0020313701032137843F0020313701F4C237843F040032370A2F58632513A137843F01003D2
:4005400013701A481A490A22FFF7C4FF19481A490522FFF7BFFF194819490A22FFF7BAFF184819490822FFF7B5FF8422174B1A70174A137843F008031370164D61232B70BA
:40058000FFF746FF81232B70FFF728FF124821460E22FFF79FFF38BDE8460040FC1E00006C00004803500140A0430040C0510040A8020048CB510040B4020048F051004019
:4005C000BC02004812510040C8020048DB1801402243004000480040B0430040000000000230800803D000BF01380046FCD17047EFF3108072B6704780F31088704700BF8B
:4006000001BE704708B5034B1B7A03FB00F0FFF7E7FF08BD0C81FF1F70B504460E46074B1D681F2802D90020FFF7EAFF04F01F04103455F8240045F8246070BD08ED00E020
:4006400038B504460D46072902D90020FFF7D8FF1F2C02D90020FFF7D3FF04F01F0000F1604000F564406D01EDB2057038BD00BF134B1B78DBB20360124A127843EA02235E
:400680000360114A127843EA024303600F4A127843EA026303600E4B1B78DBB243600D4A127843EA022343600B4A127843EA024343600A4A127843EA02634360704700BFD6
:4006C0000301004904010049EC460040020100490101004900010049050100490601004908B5FFF785FF044A137843F010031370FFF782FF08BD00BF9764004008B5044A53
:40070000137843F001031370FFF7EAFF08BD00BF77640040054B1A7802F0F8021A701A7800F0070010431870704700BF8764004008B50120FFF7EEFF08BD00BF08B5054B47
:400740001B7823B9FFF7F4FF0122024B1A70FFF7D5FF08BD8881FF1F014B1880704700BF0664004008B5124B188880B2FFF7F4FF104B1B68DBB1104B1B68ABB90F4B1A6810
:4007800001320F4B1340002B05DA013B6FEAC3436FEAD3430133094A13601268094B33F812309BB2024A13800122074B1A6008BD7881FF1F5481FF1F7081FF1F9401002062
:4007C000FF1F00809481FF1F7481FF1F014B1B681864704708ED00E04001C0B2014B1870704700BF00E400E00122014B1A60704700E100E00122014B1A60704780E100E03B
:4008000008B5FFF7F7FF0448FFF7E0FF0020FFF7E3FFFFF7E9FF08BD6507000008B5FFF7E9FF0248FFF7D2FF08BD00BFE1020000F8B5FFF7DDFE0646404A137843F00103BE
:4008400013701032137843F00103137001273C4B1F700225943B1D7002F5E2521B32137803F07F0313700020FFF7CCFE354C237803F0F9032370344A137803F0DF031370D3
:4008800023783B4323703846FFF7BCFE2820FFF7B9FE2E4B1A7802F07F021A701A7802F0BF021A7023782B4323702846FFF7AAFE237843F0040323700023254A137001323A
:4008C00013703046FFF798FE17200721FFF7B8FE17202049FFF7A0FE18200721FFF7B0FE18201D49FFF798FE15200721FFF7A8FE15201A49FFF790FE28460721FFF7A0FEC7
:4009000028461749FFF788FE03200721FFF798FE03201449FFF780FE04200721FFF790FE04201149FFF778FE0C200721FFF788FE0C200E49FFF770FEF8BD00BFA543004095
:400940009D6000409443004012600040F851004084600040791300004911000075130000BD120000F5120000311300008113000008B5214B18700023204A1370204A1370FA
:40098000204A1370204A1370204A1370204A1370204A1370204B4FF400021A604FF080721A604FF400121A6004221A6008221A6010221A6011B1012906D00BE0174A137869
:4009C00003F0FE0313700AE0144A137843F00103137004E0114A137843F00103137003220F4B1A708022203B1A700120FFF7F8FD04220C4B1A7008BDB1010020B401002060
:400A0000D0010020D3010020C8010020D2010020D5010020B001002000E100E009600040286000401260004038B505460C46064B1B7823B9FFF7FCFE0122034B1A702846A7
:400A40002146FFF795FF38BD8981FF1F00230A4A13700A4A13700A4A13700A4A13700A4A13700A4A13700A4A13700322094B1A708022203B1A707047B4010020D00100205D
:400A8000D3010020C8010020D2010020D5010020B001002028600040014B1878704700BFD3010020064B1B7813F0FF0F05D0044B1878C0B200221A7070470020704700BF7D
:400AC000D001002000EB40008000024B18444078704700BFD8010020431EDBB2072B0BD8064B00011A18185C00F00F00537843EA0020023880B2704700207047FC5F0040E3
:400B0000431EDBB2072B3BD8F0B4074600EB40039B001C4C2344DB889BB2C3F500739A4207D900EB40039B002344DA88C2F5007292B200EB40039B00124C2344DB7843EA55
:400B40001223114D04012E192B55D3B2737039B909E0CE5C3D010D4C665501339BB200E000239342F5D3430003449B00054A134400225A705A79D2B20001054B1A54F0BCBD
:400B8000704700BFD8010020FC5F004078600040FE5F0040431EDBB2072B0BD8430003449B00054A134400225A705A79D2B20001024B1A54704700BFD8010020FE5F00409D
:400BC00070B5D9B1054614460E46C8B1082819D8FFF782FFA04203D22846FFF77DFF0446002305E02901094A525CF25401339BB2A342F7D32846FFF7CDFF04E0002402E098
:400C0000002400E00024204670BD00BF7860004010B4FF2400220EE00A4B9B5C03EB43039B0009490B449B78DBB2834201D1144602220132D2B2012AEED920465DF8044B07
:400C4000704700BFA0010020E001002010B5204C2079FFF7DDFF237813F0800F0ED06378DBB2212B2FD11B4B07221A80C0EBC000194A1044586000F0D5FA10BD144B5B7820
:400C8000DBB2202B02D0222B10D01EE0114A07231380C0EBC00310490B4453600F4A135C43F00103135400F0E5FA10BD084B9B780B4A22F81030094A135C43F00203135406
:400CC00000F070F910BD002010BD002010BD00BF00600040BC0100201C81FF1F98010020AC01002010B500241F4B1C701F4B1C705C700AE01E4B185DC0B2431EDBB2072B7C
:400D000001D8FFF747FF0134E4B2012CF2D9194B1B7813F0FF0F1AD0154B1B7813F0FF0F17D0154B1B7813F0FF0F14D0114B1B78DBB2082B11D80E4B1B78DBB2082B0ED8EC
:400D40000D4B1B78DBB2082B0BD8002010BD012010BD012010BD012010BD012010BD012010BD012010BD00BF8A81FF1F98010020A40100209C010020A001002000B583B098
:400D800002A901F8010D054B1B78054AD05C0122FFF7B6FE03B05DF804FB00BF8A81FF1F9C01002008B5034B1B78034AD05CFFF789FE08BD8A81FF1FA401002008B5034B58
:400DC0001B78034AD05CFFF77DFE08BD8A81FF1F9C01002008B50146074B1B78074AD05CC0B200EB40039B00054A13441A8992B2FFF7E6FE08BD00BF8A81FF1FA401002051
:400E0000D8010020C37803F0030390F9020000280FDA032B06D002F001030B48C15442F001020EE0C2F380030848C15442F0040207E0032B05D0C2F340030548C15442F019
:400E400002021046704700BF9C010020A0010020A40100201C4B19781C4A13880B449BB2138000230EE01A4A51680978C9B21948C1545168013151600133DBB21188013967
:400E800089B21180124A128892B20AB1072BEAD90D4A1278D2B2082A00D05BB10E490A7882F080020A700F210C4A117002210C4A117004E0022209490A7009490A70094ACE
:400EC0001370014A13707047B0010020B2010020BC0100200060004046020020D1010020B4010020D40100200222074B1A708022064B1A700F22064B1A700023054A137027
:400F0000054A137001207047B401002046020020D1010020B0010020D401002008B5FFF799FF08BD10B4184B197801F00F010239C9B2164A13880B449BB21380002010E059
:400F4000134B5C68134A125CD2B222705A6801325A600130C0B20139C9B21A88013A92B21A800B4B1B889BB20BB10029E8D10A4B19700A4A137883F0800313700B22084B12
:400F80001A705DF8044B704729600040B2010020BC01002000600040D401002046020020D10100200623064A1370064A13708022054B1A700022054B1A700120704700BF06
:400FC000B4010020D101002046020020D4010020064B9B6843B1054B9A6810709A6804490988518000229A60704700BFBC010020B201002008B5134B1A78D2B21A701B7872
:40100000DBB213F0800F02D00F4A137008BD0220FFF7DEFF0D4B1B7803F06003202B05D0402B06D043B900F095FC06E000F0FEFE03E000F037FE00E0002010B90322024BF5
:401040001A7008BD28600040D10100200060004008B5084B1978084A13880B449BB213800022064B1A700120FFF7B2FF0322044B1A7008BDB0010020B2010020B401002009
:40108000D101002008B50B4B1B78DBB2042B06D0062B07D0022B0BD1FFF7DAFF08BDFFF741FF08BD0320FFF793FF0322024B1A7008BD00BFB4010020D101002008B5002295
:4010C000044B1A700120FFF783FF0322024B1A7008BD00BFB4010020D101002008B50B4B1B7813F0FF0F07D0084A137843F0800307490B70002313700022064B1A70012087
:40110000FFF766FF0322044B1A7008BDD201002008600040B4010020D101002008B5094B1B78DBB2042B06D0062B07D0022B07D1FFF7F4FE08BDFFF7C1FF08BDFFF7CEFF01
:4011400008BD00BFB401002008B5284B1B78DBB213F0100F48D013F0800F0CD003F00F03012B16D1FFF746FF214B1B7813F0800F11D1012312E013F0400F03D0FFF7CEFF5A
:4011800001230BE013F0200F07D0FFF77BFF012304E0002302E0002300E0002323B3134B1B7813F0800F1FD1124B1B78124A12781343124A13701278D2B29A4214D10C4BFA
:4011C0001B78DBB2094A127812F0800F07D1084B1B78DBB2054A1370137803F00F03044A1278D2B29342EAD108BD00BF28600040D101002046020020D40100202960004064
:401200000022064B1A80064B9B682BB1044A916800230B7092685380704700BFB2010020BC01002008B50F4B1B889BB213B9FFF75BFE15E002220C4B1A7000220B4B1A707B
:40124000FFF7DEFF0A4AD179937943EA0123054A128892B29A4201D9024A1380FFF7FAFD012008BDBC010020B4010020460200200060004008B504220B4B1A7080220B4B96
:401280001A70FFF7BDFF0A4AD179937943EA0123084A128892B29A4201D9064A13800B22054B1A70012008BDB40100204602002000600040BC010020D10100200A4A1378B6
:4012C00003F0FE031370094B9B7C094B1B7B03F00303012B04D0064AD37B83F08003D3730122034B5A7370470B600040FC5F0040D80100200B4A137803F0FD0313700A4B70
:4013000093F82230094B1B7E03F00303012B04D0064AD37E83F08003D3760122034B5A76704700BF0B600040FC5F0040D80100200D4A137803F0FB0313700C4B93F832307A
:401340000B4B93F8243003F00303012B06D0084A92F8273083F0800382F827300122044B83F82520704700BF0B600040FC5F0040D8010020704700BF08B5FFF767FB08BD0C
:4013800008B500F09BFC08BD70B588B0054603AC174E0FCE0FC43368237035B322232B7003236B7001A8FFF763F9002402231AE008AA224412F81C2C08A901EB121111F850
:4013C000141CE954581C00212954981C02F00F0208AE324412F8142C2A54DA1CA9540134E4B20433DBB2212BE2D908B070BD00BF281F000010B401223DE0114613010C24B0
:401400002148C45402EB42039B00204803445B7913F0FF0F12D002EB42039B0003441B7913F0800F04D01001194B03449C700AE01001174B03440820987004E01001144BEA
:401440000344802098704B000B449B000F480344DC88E4B208010C4901448C71D888C0F30720C871D888C0B20871DB88C3F307234B710132D2B2082ABFD9FF22054B1A70D7
:401480005DF8044B704700BF70600040D8010020FC5F00400A600040074B1B78074A02EBC30253681A7C824203D903EBC003586970470020704700BFB10100203C1F0000FF
:4014C000F8B5404B1B7813F0FF0F79D03D4B18780138C0B2FFF7E0FF047AC2683A4B1878C0B200236AE01178814264D13749095CC9B25578A9425ED1917801F07F01D67803
:4015000006F00306DFF8C8E04D000D44AD000EEB05074FF0000C87F803C092F802C087F804C092F803C00EF805C095883D8192F90250002D0DDA012E01D1072700E00D279A
:401540004D000D44AD00224E35446F7101266E700CE0012E01D1052700E009274D000D44AD001B4E35446F7100266E70DFF868E00F010EEB07060125B57001FA05F5294436
:401580008900134D29440D89C5F307250EF807500D89EDB27570CE88F6B20E4D3D44AE71CE88C6F30726EE71CE88F6B22E71C988C1F30721697108320133DBB2A34292D367
:4015C000F8BD00BFD3010020C801002044020020D801002070600040FC5F0040034B1A78034B03EBC2035868704700BFB10100203C1F000008B5074B18780138C0B2FFF70C
:401600004BFF28B14268127900EBC203586908BD002008BDD30100202DE9F84300220EE06F4E53009D18AD00741900217155A170E1702181A172617061710132D2B2082A59
:40164000EED940B90AE000226649CA546649CA540133DBB200E00023012BF4D9634B1B7813F0FF0F00F0B980604B18780138C0B2FFF712FF80464368DB7913F0400F05D0F3
:401680005B4A137843F00103137004E0584A137803F0FE03137098F808704FF0000901266CE0D8F80C50002464E0AB7803F07F039E425CD1314606EB46039B004848034499
:4016C0001B899BB2A888834205D206EB46039B00434A134418812B784248C35CDBB26878834244D195F802C03D484B000B449B0000EB030E8EF804C095F803E000F803E0AE
:40170000EB7803F0030395F90200002811DA012B02D14FF0070C01E04FF00D0CDFF8C0E04B0058188000704480F805C00123437012E0012B02D14FF0050C01E04FF0090C30
:4017400027484FEA410E0EEB01039B00034483F805C0194600234B70AB790A2B01D0022B05D1284631464A46FFF74CFB814608350134E4B2BC4298D30136F6B2082E90D981
:40178000D8F80C0000220CE0837803F07F0310F8084B03EB43039B0016490B449C700132D2B2BA42F0D3FFF725FF134B1860002301210EE00A4C4A00501880002044C38023
:4017C000028913449BB203F0010213449BB20131C9B20829EED9FFF70DFEBDE8F88300BFD801002044020020B8010020D3010020D5010020E0010020CC01002008B5154B6E
:401800001A7902F07F02531EDBB2072B20D8530013449B0010490B44997841F0010199700021D970597841F0020159701B7913F0800F05D01201094B13448D229A7004E0B2
:401840001201064B134489229A70FFF7ABFB08BD002008BD00600040D8010020FC5F0040264B1B7903F07F035A1ED2B2072A43D810B55A001A44920021490A44917801F0FB
:40188000FE0191700021D17019017F241D484454517801F0FD015170127912F0800F14D003EB4302920016490A445278D2B2012A05D11B0102461A440C23937019E01B01C9
:4018C000104A1A440D23937013E003EB430292000B490A445278D2B2012A05D11B01094A1A440823937004E01B01064A1A4409239370FFF757FB10BD0020704700600040F0
:40190000D8010020FC5F004010B50E4B1C79E4B20D4B18780138C0B2FFF7BEFD43681B799C4201D9022C0AD8084A135DDBB208490B55044B9B78DBB21355012010BD00201A
:4019400010BD00BF00600040D301002044020020B801002010B59B4B1B78DBB200219A4A118013F0800F00F0AD80964A5278D2B20A2A00F27281DFE812F06900700170019D
:401980007001700170010B007001920070019A008C4BDB78DBB2012B09D1FFF71FFE4268894B5A6012221A80FFF73CFC10BD854BDB78DBB2022B13D1824B9878FFF76CFDED
:4019C000002800F04C8142687F4B5A605A68D1785A68927842EA01221A80FFF723FC10BD784BDB78DBB2032B05D02CE00A7811440133DBB201E000237449724A9278D2B2DD
:401A00009A4203D90A7812F0FF0FEFD16D4B9B7813F0FF0F0BD06B4B9B78DBB26C4A127C934204D16B4C2046FFF7AEFC21460B7813F0FF0F00F015810B78634A13805160EF
:401A4000FFF7F0FB10BD00F0F1F910BD13F0030317D0022B40F007815B490B80594B1B7903F07F0303EB43039B005B4A13449A78D2B25A4B1A7000225A704B60FFF7D2FB76
:401A800010BD514902230B80554B1A78D2B2534B1A7000225A704B60FFF7C4FB10BD4A4B01221A804F4A5A60FFF7BCFB10BD464A01231380434B1B794B490B445360FFF704
:401AC000B1FB10BD3F4A5278013A0A2A00F2CD80DFE812F04B00CB009600CB000B00CB00CB00CB001300CB003000364B9B78DBB23E4A1370FFF756FA10BD324B9B7803F0F0
:401B0000FF041BB1601EC0B2FFF7C6FC04B110B9002C40F0AC80334B1B78DBB29C4206D0304B1C700120324B1870FFF775FDFFF739FA10BDFFF7E8FE002800F09A80214AD2
:401B40001379DBB21279D2B22A490A702A4AD25C2549C95CD3B28B4204D00122244B1A70FFF7AEFCFFF71EFA10BD03F00303012B17D04BB1022B7ED1124B9B7813F0FF0F59
:401B80007BD1FFF76DFE10BD0E4B9B78DBB2012B75D1134A137803F0FD031370FFF702FA10BD084B1B79DBB2012B6AD8054B98781B79DBB21149CA5C22EA0002CA54FFF71E
:401BC000F1F910BD00600040BC010020A41F0000882000004C020020D80100208C81FF1FD5010020D301002044020020D2010020D0010020C8010020B80100204802002054
:401C000003F00303012B17D04BB1022B3BD1224B9B7813F0FF0F38D1FFF7F0FD10BD1E4B9B78DBB2012B32D11C4A137843F002031370FFF7B7F910BD174B1B79DBB2012B13
:401C400027D8154B98781B79DBB21549CA5C22EA0002CA54FFF7A6F910BD002010BD002010BD002010BD002010BD002010BD002010BD002010BD002010BD002010BD00204D
:401C800010BD002010BD002010BD002010BD002010BD002010BD00BF00600040D501002048020020044B1B7813F0800F01D0024B5B780020704700BF00600040024B18787F
:401CC000C0F38010704700BF8F450040114B1B68F3B1114B1A680132104B1340002B05DA013B6FEAC3436FEAD34301330A4A136012680B4B33F812309BB20A4A13800A4B00
:401D00001B68012B04D10023024A1360064A1360704700BF7081FF1F94010020FF1F00809481FF1F7881FF1F8481FF1F014B1B685864704708ED00E04001C0B2014B187097
:401D4000704700BF01E400E00222014B1A60704700E100E00222014B1A60704780E100E008B5FFF7F7FF0448FFF7E0FF0120FFF7E3FFFFF7E9FF08BDCD1C0000024A1378BE
:401D800043F080031370704778650040014B1870704700BF89650040014B1878704700BF69650040014B1880704700BF506A0040014B188880B27047906A0040014B1880F7
:401DC000704700BF106A004008B501E0FFF7F0FFFFF7E2FF10F0080FF8D108BD08B540F6C310FFF7DFFF40F6C310FFF7E7FFFEF7FFFB064A137843F010031370FEF7FCFBB6
:401E0000FFF7E2FF0120FFF7C1FF08BD9965004008B5054B1B7823B9FFF7E0FF0122024B1A70FFF7ABFF08BD9081FF1F08B5124B1B7803F00303012B02D0022B04D00FE07E
:401E40000D4B1B79DBB20CE00B4B1B7903F07F0303EB43039B00094A13449B78DBB200E00023074A1268D35C022B02D1FEF7EEFE08BD002008BD00BF00600040E00100209D
:401E8000CC0100200E4B70B51E460E4C0025E41AA410A54204D056F8253098470135F8E700F0FCF8084B094C1E46E41AA4100025A54204D056F8253098470135F8E770BD8A
:401EC000A8200000A8200000A8200000B020000010B5431E0A44914204D011F8014B03F8014FF8E710BD03460244934202D003F8011BFAE7704700000000000000510040DD
:401F0000100020510040500000000140001000140140000800400140000A004C01400002005001402000000030313233343536373839414243444546000000000100000074
:401F4000441F000001000000882000000000000000000000010000005C1F0000010000004420000003000000881F00000000000000000000000000000000000000000000CA
:401F8000841F0000020A000000008103400002000100820240000A000100030240000A0002030000040309042C0343007900700072006500730073002000530065006D0017
:401FC000690063006F006E0064007500630074006F007200100355005300420055004100520054003803430044004300200043006F006D006D0075006E00690063006100AD
:40200000740069006F006E00200049006E007400650072006600610063006500260343004400430020004400610074006100200049006E007400650072006600610063005C
:4020400065000000090243000201018032090400000102020103052400100104240202052406000105240100010705810340000109040100020A0000040705820240000061
:4020800007050302400000001201000202000008B40432F20100010280010000F8B500BFF8BC08BC9E4670474D00000031030000F8B500BFF8BC08BC9E46704729000000A7
:4020C000D02000000881FF1F3000000038810000000000000000E02EC05D00001800000000366E0100C2010000000800C201000000080000A120000000000200000000001F
:40210000000000000000000000000000000000000000000000000000000000000000000000000000000000000000000000000000000000000000000000000000000000009F
:40214000000000000000000000000000000000000000000000000000000000000000000000000000000000000000000000000000000000000000000000000000000000005F
:40218000000000000000000000000000000000000000000000000000000000000000000000000000000000000000000000000000000000000000000000000000000000001F
:4021C00000000000000000000000000000000000000000000000000000000000000000000000000000000000000000000000000000000000000000000000000000000000DF
:020000040003F7
:0200000480007A
:4000000001450040035200400165004001030140010501403C0601401707014001090140010B0140010D01400115014004170140541801402D190140021B014007400140DD
:4000400006410140084201400643014002450140024601400547014007480140044C0140044D014004500140025101407E02600461047C40890DEA04E2040D0131013F017A
:400080004104460B480449FF4AFF4BFF4CEF4D554E704F48501C560859045A085B045D995F0161086308650867086850690A6A406BA86CC06E406FA8C105C5C0C6DEC70FC5
:4000C000C81EC9FFCAFFCBFFCCEACD55CEF2CF48D01CD201DA0BDB0BDD99DF01E108E308E508E708E850E90AEA40EBA8ECC0EE40EFA827403F8047024801490151A8574095
:4001000059015C4061A86401670268016B0278017F01CE10D080D208D611D81EDE11E2048004E204EA04B4409440AB40E204EA02091F0D080F0111101301151C17021904A3
:400140001B012F3C331C350337204025410649FF4AFF4BFF4F015018528059045A045B045C105D115F016040624064406540668068806A806C806E808001820A840286017E
:400180009301940196029C019E069F01AC01AE12B010B204B403B608B701BA20BF40C035C102C5ECC720C823C9FFCAFFCBFFCD83CE03CF01D018D401D604D804D904DA04FF
:4001C000DB04DD11DF05E040E240E440E540E680E880EA80EC80EE80000401020A111002180419021A111B10224025C827282E8031803202360237283D803F20400441087F
:40020000472049054A024E024F20520259055A80638076807B1083409404C00CC205C401CA10CCE9CE30D026D238D60BD801DE02EA02B002EA40308033013580360838203D
:40024000CCF0CE1094209D809F01A480AA08EA205710801094209D809F01A480D440E22080809D809F01A480A710E220A740AB408120A74009280F80A520A740C20E8180C0
:400280009D80AB10AF01E220EA40EE800B020F10AD08C206B310B701EA02EE0101010B0110031C0300AF0102040004040400040000040000000800000000000040000000CB
:4002C00000000000C00000006000000000000000000000000000000000000000000000000000000000000000000000000000000000000000000000000000000000000000DE
:4003000000000000000000000000000000000000000000000000000000000000000000000000000000000000000000000000000000000000000000000000000000000000BD
:40034000000000000000000000000000000000000000000000000000000000000000000000000000000000000000000000000000000000000000000000000000000000007D
:40038000000000000000000000000000000000000000000000000000000000000000000000000000000000000000000000000000000000000000000000000000000000003D
:4003C00000000000000000000000000000000000000000000000000000000000000000000000000000000000000000000000000000000000000000000000000000000000FD
:0200000490006A
:0400000000004005B7
:0200000490105A
:04000000BC90ACAF55
:0200000490303A
:0200000061AEEF
:0200000490402A
:4000000000000000000000000000000000000000000000000000000000000000000000000000000000000000000000000000000000000000000000000000000000000000C0
:400040000000000000000000000000000000000000000000000000000000000000000000000000000000000000000000000000000000000000000000000000000000000080
:400080000000000000000000000000000000000000000000000000000000000000000000000000000000000000000000000000000000000000000000000000000000000040
:4000C0000000000000000000000000000000000000000000000000000000000000000000000000000000000000000000000000000000000000000000000000000000000000
:0200000490501A
:0C00000000012E16106900012E2272175C
:00000001FF