:4000000000800020110000002D0500002D05000008B5044B1A6803F53F5302331A6000F087FA00BFFA46004010B5054C237833B9044B13B10448AFF300800123237010BD92
:400040004081FF1F00000000E0260000084B10B51BB108480849AFF300800848036803B910BD074B002BFBD0BDE81040184700BF00000000E02600004481FF1F0881FF1FC5
:4000800000000000F0B591B062B60020012100F0C7FD02F0B1F8012002F0BCF802F046F9012002F051F902F083F9012002F08EF902F000F901F0E8FF02F0BCF9012002F0D7
:4000C000C7F902F051FA012002F05CFA02F08EFA012002F099FA02F00BFA02F051F8A34B1B68EBB1A14B5B68D3B9A04BDB68A04A12689B1ADB43C3F30A0340F2FF72934260
:400100000ED0412B0CDD00F0C3FD48B100F052FF0028FBD0F02000F02DFF0122934B5A60924B1B68EBB1914B9B68D3B98F4B1B698F4A52689B1ADB43C3F30A0340F2FF7237
:4001400093420ED0412B0CDD00F0A2FD48B100F031FF0028FBD0F12000F00CFF0122834B9A6000F09BFD20B100F092FD08B100F0B5FE00F08DFD0028B1D000F00FFF002868
:40018000ADD0684600F022FF784B58619DF80030B02B00F09C8110D8A02B00F07A8103D80BB3012B3FD09AE7A22B00F08581C0F07A81A32B00F0848191E7F02B00F0C080F3
:4001C00008D8B22B00F09681C0F08B81B32B00F0958184E7F22B00F05581C0F0F880FF2B00F093817BE7624B00241C605C605F4BDC601C611C609C61DC611C6200F00AFCFF
:4002000001F0DCFE0BE004EBC3210020594A22F81100013300E00023052BF4DD0134B4F5006FF8DB5BE79DF80120504B5A629DF802209A629DF80320DA629DF804201A63C3
:400240005A630022DA601A611A609A639A61DA611A620121D9601961454B1A605A6000F0A9FE0028FBD00B2000F084FE414B1A8892B23E4CA28703F58052128892B2E287CB
:4002800003F50052128892B2A4F8402003F54052128892B2A4F8422003F58042128892B2A4F8442003F5A0431B889BB2A4F846300123A364E364236523600023636000F0EC
:4002C0009BFBA36A012B7FF70AAF01F069FE0022A26004E7254B5B6A03FB0453134410A90B4413F8401C01EB002398B2013201E0002210461D49496A8A42EBDB1B4BDB6810
:4003000003EBC4231B4A22F81300013400E00024164BDB6A9C42EBDB144BDA680132164B1340002B05DA013B6FEA43536FEA535301330E4AD360536AD26A02FB035500E02A
:4003400001253C2DE3DD0022084B5A60C7E6074B5B6A03FB0453134410A90B4413F8401C01EB002398B201320AE000BF5C81FF1FC8E1FF1FC881FF1FFF07008000221046C4
:40038000664B5B6A9A42E2DBE21C644B1B6903EBC223634A22F81300013400E000245F4BDB6A9C42EADB5D4B1A6901325D4B1340002B05DA013B6FEA43536FEA53530133C4
:4003C000564A1361536AD26A02FB035500E001253C2DE3DD0022514B9A6080E64F48426AC36A03FB02F305FB0362436A03FB04230B4410AA134413F8402C02EB07239FB275
:40040000013101E000210F46444B5B6A9942E5DB05EB45031A19414BDB6803EBC223404A22F81370013400E000243C4BDB6A9C42E8DB013500E00025012DF5DD374BDA686B
:400440000132384B1340002B05DA013B6FEA43536FEA53530133314AD36012690132314B1340002B05DA013B6FEA43536FEA535301332A4A1361516AD36A03FB01F306EBB5
:40048000430600E001263C2ED5DD0022234B5A6025E69DF801009DF8023003EB002080B201F0D2FE1BE69DF801209DF8023003EB02231D4A136012E60122184B5A650EE681
:4004C000164B00225A6501221A639A6407E69DF801009DF8023003EB002080B201F0D2FFFDE59DF801209DF8023003EB02230E4A5360F4E50122094B9A65F0E5074B0022BB
:400500009A6501225A63DA64E9E500F053FD0028FBD0FF2000F02EFDE1E500BF5C81FF1FC881FF1FFF0700800C81FF1FFEE700BF08B5104E104D16E029686B68AC6800229F
:4005400004E051F8040B43F8040B0432A242F8D1E868002203E0002143F8041B04328242F9D11035013E002EE6D102F07FF8FFF789FDFEE701000000A828000008B5124A61
:40058000124B1A60124A136843F40073136000230AE0032B03D80F4A52F8231000E00E490E4A42F8231001332F2BF2D90C4B1A780C4B1A70094A0C4B1A6000F0B5F8002282
:4005C0000A4B1A6008BD00BF0004FA050CED00E014ED00E0000000002D0500000080FF1FBC7600400481FF1F08ED00E00081FF1FFEE700BFF0B40022174611E050F827600B
:40060000F3B226F0FF0608E001EB420511F812406D78A5550132013BDBB2002BF4D10137232FEBD9F0BC7047064B1B78DBB203F00701054A11701B09013213704422034B3E
:400640001A707047CF0100496E5800407658004008B50A46002102F03AF808BD38B50322264B1A80192502331D70002402331C80582202331A70062203F27A231A705222F2
:40068000A3F580731A701E4B1B78DBB21D4A13704FF4E1621C4B1A8041F25122023B1A800CE01A4B1B7803F0010343EA440404F003044FF4F07000F0B3F8013D0DB1032CFA
:4006C000EFD115B90320FFF793FF114A4FF4807313800723137000230E490B7048200231087013700532137002220B4B1A700B4A137843F00303137038BD00BF8040004057
:400700000F010049A14600402242004025420040044000400640004001400040A243004008B501F0C9FF08BD38B572B62C4A137843F00403137000240CE02A4963001A1917
:4007400052000A4423445B00C8589188FFF780FF0134E4B2062CF0D94FF090402249FFF749FF224A137843F0020313701032137843F0020313701E4C237843F040032370A3
:40078000A2F58632513A137843F010031370194819490A22FFF7C4FF184819490A22FFF7BFFF184818490822FFF7BAFF8422174B1A70C42280331A70154A137843F008034A
:4007C0001370144D61232B70FFF748FF81232B70FFF72AFF104821460E22FFF7A1FF38BDE8460040E42600009000004803500140A0430040C051004074070048F051004045
:4008000080070048225100408C0700485B0A01402243004000480040B0430040000000000230800803D000BF01380046FCD17047EFF3108072B6704780F31088704700BF34
:4008400001BE704708B5034B1B7A03FB00F0FFF7E7FF08BD1481FF1F70B504460E46074B1D681F2802D90020FFF7EAFF04F01F04103455F8240045F8246070BD08ED00E0D6
:4008800038B504460D46072902D90020FFF7D8FF1F2C02D90020FFF7D3FF04F01F0000F1604000F564406D01EDB2057038BD00BF134B1B78DBB20360124A127843EA02231C
:4008C0000360114A127843EA024303600F4A127843EA026303600E4B1B78DBB243600D4A127843EA022343600B4A127843EA024343600A4A127843EA02634360704700BF94
:400900000301004904010049EC460040020100490101004900010049050100490601004910B5204C208880B201F074FC608880B201F00AFDA08880B201F048FD1A4B1B6834
:40094000002B2DD0194B1B683BBB194B1A680132184B1340002B05DA013B6FEA43536FEA53530133124A13601368134931F8130080B20C4B1880106800F5006031F8100032
:4009800080B25880126802F5805231F8122092B29A800A4A1368013313600122084B1A6010BD00BF9881FF1F5C81FF1F8C81FF1FC8E1FF1FFF070080C881FF1F7881FF1F17
:4009C0009481FF1F014B1B681864704708ED00E04001C0B2014B1870704700BF00E400E00122014B1A60704700E100E00122014B1A60704780E100E008B5FFF7F7FF0448F5
:400A0000FFF7E0FF0020FFF7E3FFFFF7E9FF08BD2109000008B5FFF7E9FF0248FFF7D2FF08BD00BF2D050000F8B5FFF701FF0546404A137843F0010313701032137843F0FD
:400A40000103137001273C4B1F700226943B1E7002F5E2521B32137803F07F0313700020FFF7F0FE354C237803F0F9032370344A137803F0DF03137023783B432370384604
:400A8000FFF7E0FE2820FFF7DDFE2E4B1A7802F07F021A701A7802F0BF021A702378334323703046FFF7CEFE237843F0040323700023254A1370013213702846FFF7BCFE45
:400AC00017200721FFF7DCFE17202049FFF7C4FE18200721FFF7D4FE18201D49FFF7BCFE15200721FFF7CCFE15201A49FFF7B4FE04200721FFF7C4FE04201749FFF7ACFE74
:400B000005200721FFF7BCFE05201449FFF7A4FE06200721FFF7B4FE06201149FFF79CFE0C200721FFF7ACFE0C200E49FFF794FEF8BD00BFA54300409D60004094430040A9
:400B400012600040F85100408460004071150000411300006D150000B5140000ED140000291500007915000008B5214B18700023204A1370204A1370204A1370204A13709C
:400B8000204A1370204A1370204A1370204B4FF400021A604FF080721A604FF400121A6010221A6020221A6040221A6011B1012906D00BE0174A137803F0FE0313700AE08C
:400BC000144A137843F00103137004E0114A137843F00103137003220F4B1A708022203B1A700120FFF71CFE04220C4B1A7008BDE9E1FF1FECE1FF1F08E2FF1F0BE2FF1F5B
:400C000000E2FF1F0AE2FF1F0DE2FF1FE8E1FF1F00E100E009600040286000401260004038B505460C46064B1B7823B9FFF7FCFE0122034B1A7028462146FFF795FF38BD49
:400C4000B881FF1F00230A4A13700A4A13700A4A13700A4A13700A4A13700A4A13700A4A13700322094B1A708022203B1A707047ECE1FF1F08E2FF1F0BE2FF1F00E2FF1FDA
:400C80000AE2FF1F0DE2FF1FE8E1FF1F28600040014B1878704700BF0BE2FF1F064B1B7813F0FF0F05D0044B1878C0B200221A7070470020704700BF08E2FF1F00EB4000CA
:400CC0008000024B18444078704700BF10E2FF1F431EDBB2072B0BD8064B00011A18185C00F00F00537843EA0020023880B2704700207047FC5F0040431EDBB2072B3BD8B3
:400D0000F0B4074600EB40039B001C4C2344DB889BB2C3F500739A4207D900EB40039B002344DA88C2F5007292B200EB40039B00124C2344DB7843EA1223114D04012E19A7
:400D40002B55D3B2737039B909E0CE5C3D010D4C665501339BB200E000239342F5D3430003449B00054A134400225A705A79D2B20001054B1A54F0BC704700BF10E2FF1F14
:400D8000FC5F004078600040FE5F0040431EDBB2072B0BD8430003449B00054A134400225A705A79D2B20001024B1A54704700BF10E2FF1FFE5F004070B5D9B1054614469F
:400DC0000E46C8B1082819D8FFF782FFA04203D22846FFF77DFF0446002305E02901094A525CF25401339BB2A342F7D32846FFF7CDFF04E0002402E0002400E0002420465C
:400E000070BD00BF7860004010B4FF2400220EE00A4B9B5C03EB43039B0009490B449B78DBB2834201D1144602220132D2B2012AEED920465DF8044B704700BFD8E1FF1F46
:400E400018E2FF1F10B5204C2079FFF7DDFF237813F0800F0ED06378DBB2212B2FD11B4B07221A80C0EBC000194A1044586000F0D5FA10BD144B5B78DBB2202B02D0222B47
:400E800010D01EE0114A07231380C0EBC00310490B4453600F4A135C43F00103135400F0E5FA10BD084B9B780B4A22F81030094A135C43F00203135400F070F910BD0020B5
:400EC00010BD002010BD00BF00600040F4E1FF1F2481FF1FD0E1FF1FE4E1FF1F10B500241F4B1C701F4B1C705C700AE01E4B185DC0B2431EDBB2072B01D8FFF747FF01342C
:400F0000E4B2012CF2D9194B1B7813F0FF0F1AD0154B1B7813F0FF0F17D0154B1B7813F0FF0F14D0114B1B78DBB2082B11D80E4B1B78DBB2082B0ED80D4B1B78DBB2082B89
:400F40000BD8002010BD012010BD012010BD012010BD012010BD012010BD012010BD00BFB981FF1FD0E1FF1FDCE1FF1FD4E1FF1FD8E1FF1F00B583B002A901F8010D054BB8
:400F80001B78054AD05C0122FFF7B6FE03B05DF804FB00BFB981FF1FD4E1FF1F08B5034B1B78034AD05CFFF789FE08BDB981FF1FDCE1FF1F08B5034B1B78034AD05CFFF7CC
:400FC0007DFE08BDB981FF1FD4E1FF1F08B50146074B1B78074AD05CC0B200EB40039B00054A13441A8992B2FFF7E6FE08BD00BFB981FF1FDCE1FF1F10E2FF1FC37803F089
:40100000030390F9020000280FDA032B06D002F001030B48C15442F001020EE0C2F380030848C15442F0040207E0032B05D0C2F340030548C15442F002021046704700BF6E
:40104000D4E1FF1FD8E1FF1FDCE1FF1F1C4B19781C4A13880B449BB2138000230EE01A4A51680978C9B21948C1545168013151600133DBB21188013989B21180124A128831
:4010800092B20AB1072BEAD90D4A1278D2B2082A00D05BB10E490A7882F080020A700F210C4A117002210C4A117004E0022209490A7009490A70094A1370014A1370704786
:4010C000E8E1FF1FEAE1FF1FF4E1FF1F006000407EE2FF1F09E2FF1FECE1FF1F0CE2FF1F0222074B1A708022064B1A700F22064B1A700023054A1370054A137001207047E7
:40110000ECE1FF1F7EE2FF1F09E2FF1FE8E1FF1F0CE2FF1F08B5FFF799FF08BD10B4184B197801F00F010239C9B2164A13880B449BB21380002010E0134B5C68134A125CA4
:40114000D2B222705A6801325A600130C0B20139C9B21A88013A92B21A800B4B1B889BB20BB10029E8D10A4B19700A4A137883F0800313700B22084B1A705DF8044B704718
:4011800029600040EAE1FF1FF4E1FF1F006000400CE2FF1F7EE2FF1F09E2FF1F0623064A1370064A13708022054B1A700022054B1A700120704700BFECE1FF1F09E2FF1F85
:4011C0007EE2FF1F0CE2FF1F064B9B6843B1054B9A6810709A6804490988518000229A60704700BFF4E1FF1FEAE1FF1F08B5134B1A78D2B21A701B78DBB213F0800F02D0ED
:401200000F4A137008BD0220FFF7DEFF0D4B1B7803F06003202B05D0402B06D043B900F095FC06E001F0F6F903E000F037FE00E0002010B90322024B1A7008BD28600040D9
:4012400009E2FF1F0060004008B5084B1978084A13880B449BB213800022064B1A700120FFF7B2FF0322044B1A7008BDE8E1FF1FEAE1FF1FECE1FF1F09E2FF1F08B50B4BA9
:401280001B78DBB2042B06D0062B07D0022B0BD1FFF7DAFF08BDFFF741FF08BD0320FFF793FF0322024B1A7008BD00BFECE1FF1F09E2FF1F08B50022044B1A700120FFF77B
:4012C00083FF0322024B1A7008BD00BFECE1FF1F09E2FF1F08B50B4B1B7813F0FF0F07D0084A137843F0800307490B70002313700022064B1A700120FFF766FF0322044B79
:401300001A7008BD0AE2FF1F08600040ECE1FF1F09E2FF1F08B5094B1B78DBB2042B06D0062B07D0022B07D1FFF7F4FE08BDFFF7C1FF08BDFFF7CEFF08BD00BFECE1FF1F1B
:4013400008B5284B1B78DBB213F0100F48D013F0800F0CD003F00F03012B16D1FFF746FF214B1B7813F0800F11D1012312E013F0400F03D0FFF7CEFF01230BE013F0200F70
:4013800007D0FFF77BFF012304E0002302E0002300E0002323B3134B1B7813F0800F1FD1124B1B78124A12781343124A13701278D2B29A4214D10C4B1B78DBB2094A12783C
:4013C00012F0800F07D1084B1B78DBB2054A1370137803F00F03044A1278D2B29342EAD108BD00BF2860004009E2FF1F7EE2FF1F0CE2FF1F296000400022064B1A80064BBD
:401400009B682BB1044A916800230B7092685380704700BFEAE1FF1FF4E1FF1F08B50F4B1B889BB213B9FFF75BFE15E002220C4B1A7000220B4B1A70FFF7DEFF0A4AD1793A
:40144000937943EA0123054A128892B29A4201D9024A1380FFF7FAFD012008BDF4E1FF1FECE1FF1F7EE2FF1F0060004008B504220B4B1A7080220B4B1A70FFF7BDFF0A4A33
:40148000D179937943EA0123084A128892B29A4201D9064A13800B22054B1A70012008BDECE1FF1F7EE2FF1F00600040F4E1FF1F09E2FF1F0A4A137803F0FE031370094B20
:4014C0009B7C094B1B7B03F00303012B04D0064AD37B83F08003D3730122034B5A7370470B600040FC5F004010E2FF1F0B4A137803F0FD0313700A4B93F82230094B1B7E58
:4015000003F00303012B04D0064AD37E83F08003D3760122034B5A76704700BF0B600040FC5F004010E2FF1F0D4A137803F0FB0313700C4B93F832300B4B93F8243003F003
:401540000303012B06D0084A92F8273083F0800382F827300122044B83F82520704700BF0B600040FC5F004010E2FF1F704700BF08B5FFF767FB08BD08B500F09BFC08BD12
:4015800070B588B0054603AC174E0FCE0FC43368237035B322232B7003236B7001A8FFF787F9002402231AE008AA224412F81C2C08A901EB121111F8141CE954581C002131
:4015C0002954981C02F00F0208AE324412F8142C2A54DA1CA9540134E4B20433DBB2212BE2D908B070BD00BF1027000010B401223DE0114613010C242148C45402EB42030D
:401600009B00204803445B7913F0FF0F12D002EB42039B0003441B7913F0800F04D01001194B03449C700AE01001174B03440820987004E01001144B0344802098704B0061
:401640000B449B000F480344DC88E4B208010C4901448C71D888C0F30720C871D888C0B20871DB88C3F307234B710132D2B2082ABFD9FF22054B1A705DF8044B704700BFF5
:401680007060004010E2FF1FFC5F00400A600040074B1B78074A02EBC30253681A7C824203D903EBC003586970470020704700BFE9E1FF1F24270000F8B5404B1B7813F02C
:4016C000FF0F79D03D4B18780138C0B2FFF7E0FF047AC2683A4B1878C0B200236AE01178814264D13749095CC9B25578A9425ED1917801F07F01D67806F00306DFF8C8E051
:401700004D000D44AD000EEB05074FF0000C87F803C092F802C087F804C092F803C00EF805C095883D8192F90250002D0DDA012E01D1072700E00D274D000D44AD00224E5B
:4017400035446F7101266E700CE0012E01D1052700E009274D000D44AD001B4E35446F7100266E70DFF868E00F010EEB07060125B57001FA05F529448900134D29440D8903
:40178000C5F307250EF807500D89EDB27570CE88F6B20E4D3D44AE71CE88C6F30726EE71CE88F6B22E71C988C1F30721697108320133DBB2A34292D3F8BD00BF0BE2FF1FD2
:4017C00000E2FF1F7CE2FF1F10E2FF1F70600040FC5F0040034B1A78034B03EBC2035868704700BFE9E1FF1F2427000008B5074B18780138C0B2FFF74BFF28B142681279D0
:4018000000EBC203586908BD002008BD0BE2FF1F2DE9F84300220EE06F4E53009D18AD00741900217155A170E1702181A172617061710132D2B2082AEED940B90AE00022CC
:401840006649CA546649CA540133DBB200E00023012BF4D9634B1B7813F0FF0F00F0B980604B18780138C0B2FFF712FF80464368DB7913F0400F05D05B4A137843F0010356
:40188000137004E0584A137803F0FE03137098F808704FF0000901266CE0D8F80C50002464E0AB7803F07F039E425CD1314606EB46039B00484803441B899BB2A888834218
:4018C00005D206EB46039B00434A134418812B784248C35CDBB26878834244D195F802C03D484B000B449B0000EB030E8EF804C095F803E000F803E0EB7803F0030395F9A8
:401900000200002811DA012B02D14FF0070C01E04FF00D0CDFF8C0E04B0058188000704480F805C00123437012E0012B02D14FF0050C01E04FF0090C27484FEA410E0EEB28
:4019400001039B00034483F805C0194600234B70AB790A2B01D0022B05D1284631464A46FFF74CFB814608350134E4B2BC4298D30136F6B2082E90D9D8F80C0000220CE085
:40198000837803F07F0310F8084B03EB43039B0016490B449C700132D2B2BA42F0D3FFF725FF134B1860002301210EE00A4C4A00501880002044C380028913449BB203F0E9
:4019C000010213449BB20131C9B20829EED9FFF70DFEBDE8F88300BF10E2FF1F7CE2FF1FF0E1FF1F0BE2FF1F0DE2FF1F18E2FF1F04E2FF1F08B5154B1A7902F07F02531E78
:401A0000DBB2072B20D8530013449B0010490B44997841F0010199700021D970597841F0020159701B7913F0800F05D01201094B13448D229A7004E01201064B13448922C1
:401A40009A70FFF7ABFB08BD002008BD0060004010E2FF1FFC5F0040264B1B7903F07F035A1ED2B2072A43D810B55A001A44920021490A44917801F0FE0191700021D170E6
:401A800019017F241D484454517801F0FD015170127912F0800F14D003EB4302920016490A445278D2B2012A05D11B0102461A440C23937019E01B01104A1A440D2393703E
:401AC00013E003EB430292000B490A445278D2B2012A05D11B01094A1A440823937004E01B01064A1A4409239370FFF757FB10BD002070470060004010E2FF1FFC5F00402E
:401B000010B50E4B1C79E4B20D4B18780138C0B2FFF7BEFD43681B799C4201D9022C0AD8084A135DDBB208490B55044B9B78DBB21355012010BD002010BD00BF0060004080
:401B40000BE2FF1F7CE2FF1FF0E1FF1F10B59B4B1B78DBB200219A4A118013F0800F00F0AD80964A5278D2B20A2A00F27281DFE812F06900700170017001700170010B0026
:401B80007001920070019A008C4BDB78DBB2012B09D1FFF71FFE4268894B5A6012221A80FFF73CFC10BD854BDB78DBB2022B13D1824B9878FFF76CFD002800F04C814268BA
:401BC0007F4B5A605A68D1785A68927842EA01221A80FFF723FC10BD784BDB78DBB2032B05D02CE00A7811440133DBB201E000237449724A9278D2B29A4203D90A7812F02E
:401C0000FF0FEFD16D4B9B7813F0FF0F0BD06B4B9B78DBB26C4A127C934204D16B4C2046FFF7AEFC21460B7813F0FF0F00F015810B78634A13805160FFF7F0FB10BD00F08B
:401C4000E9FC10BD13F0030317D0022B40F007815B490B80594B1B7903F07F0303EB43039B005B4A13449A78D2B25A4B1A7000225A704B60FFF7D2FB10BD514902230B8000
:401C8000554B1A78D2B2534B1A7000225A704B60FFF7C4FB10BD4A4B01221A804F4A5A60FFF7BCFB10BD464A01231380434B1B794B490B445360FFF7B1FB10BD3F4A52784D
:401CC000013A0A2A00F2CD80DFE812F04B00CB009600CB000B00CB00CB00CB001300CB003000364B9B78DBB23E4A1370FFF756FA10BD324B9B7803F0FF041BB1601EC0B2FB
:401D0000FFF7C6FC04B110B9002C40F0AC80334B1B78DBB29C4206D0304B1C700120324B1870FFF775FDFFF739FA10BDFFF7E8FE002800F09A80214A1379DBB21279D2B267
:401D40002A490A702A4AD25C2549C95CD3B28B4204D00122244B1A70FFF7AEFCFFF71EFA10BD03F00303012B17D04BB1022B7ED1124B9B7813F0FF0F7BD1FFF76DFE10BD05
:401D80000E4B9B78DBB2012B75D1134A137803F0FD031370FFF702FA10BD084B1B79DBB2012B6AD8054B98781B79DBB21149CA5C22EA0002CA54FFF7F1F910BD006000403F
:401DC000F4E1FF1F8C2700007028000084E2FF1F10E2FF1FBC81FF1F0DE2FF1F0BE2FF1F7CE2FF1F0AE2FF1F08E2FF1F00E2FF1FF0E1FF1F80E2FF1F03F00303012B17D095
:401E00004BB1022B3BD1224B9B7813F0FF0F38D1FFF7F0FD10BD1E4B9B78DBB2012B32D11C4A137843F002031370FFF7B7F910BD174B1B79DBB2012B27D8154B98781B791A
:401E4000DBB21549CA5C22EA0002CA54FFF7A6F910BD002010BD002010BD002010BD002010BD002010BD002010BD002010BD002010BD002010BD002010BD002010BD002074
:401E800010BD002010BD002010BD002010BD00BF006000400DE2FF1F80E2FF1F044B1B7813F0800F01D0024B5B780020704700BF00600040024B1878C0F38010704700BF71
:401EC0008F45004010B5214CE08880B200F0C0FA208980B200F056FB608980B200F094FB1B4B1B68002B2FD01A4B5B684BBB1A4B5A680132194B1340002B05DA013B6FEAB1
:401F000043536FEA53530133134A53605368144903F5C05331F8130080B20C4BD880506800F5005031F8100080B21881526802F5205231F8122092B25A810A4A53680133A7
:401F400053600122084B1A6010BD00BF9881FF1F5C81FF1F8C81FF1FC8E1FF1FFF070080C881FF1F7881FF1F9481FF1F014B1B689864704708ED00E04001C0B2014B1870F9
:401F8000704700BF02E400E00422014B1A60704700E100E00422014B1A60704780E100E008B5FFF7F7FF0448FFF7E0FF0020FFF7E3FFFFF7E9FF08BDC51E000008B5FFF7A2
:401FC000E9FF0248FFF7D2FF08BD00BF2D050000174B1B68002B2AD0164B1B683BB3164B1A680132154B1340002B05DA013B6FEA43536FEA535301330F4A13601268104B84
:4020000033F812309BB20F4A13800F4A1368013313600E4B1B68012B04D012680C4B1B689A4204D10023034A1360084A136070475C81FF1F8C81FF1FC8E1FF1FFF070080CC
:40204000C881FF1F9881FF1F7881FF1FB081FF1F0C81FF1F014B1B685864704708ED00E04001C0B2014B1870704700BF01E400E00222014B1A60704700E100E00222014B06
:402080001A60704780E100E008B5FFF7F7FF0448FFF7E0FF0120FFF7E3FFFFF7E9FF08BDD11F0000204B1B68002B3BD01F4B5B68002B37D01E4B5A6801321E4B1340002B90
:4020C00005DA013B6FEA43536FEA53530133184A53605368184903F5C05331F8130080B2164BD880506800F5005031F8100080B21881526802F5205231F8122092B25A81A2
:402100000F4A5368013353600E4B5B68012B04D052680D4B5B689A4204D10023034A5360084A5360704700BF5C81FF1F8C81FF1FC8E1FF1FFF070080C881FF1F9881FF1F53
:402140007881FF1FB081FF1F0C81FF1F014B1B68D864704708ED00E04001C0B2014B1870704700BF03E400E00822014B1A60704700E100E00822014B1A60704780E100E0A3
:4021800008B5FFF7F7FF0448FFF7E0FF0120FFF7E3FFFFF7E9FF08BDA520000008B5FEF747FB044A137843F010031370FEF744FB08BD00BF9765004008B5044A137843F0A1
:4021C00001031370FFF7EAFF08BD00BF77650040054B1A7802F0F8021A701A7800F0070010431870704700BF8765004008B50120FFF7EEFF08BD00BF08B5054B1B7823B9BA
:40220000FFF7F4FF0122024B1A70FFF7D5FF08BDC081FF1F014B1880704700BF06650040024A137843F080031370704779640040014B1870704700BF8A640040014B187890
:40224000704700BF6A640040014B1880704700BF50680040014B188880B2704790680040014B1880704700BF1068004008B501E0FFF7F0FFFFF7E2FF10F0080FF8D108BD6A
:4022800008B540F6C310FFF7DFFF40F6C310FFF7E7FFFEF7CDFA064A137843F010031370FEF7CAFAFFF7E2FF0120FFF7C1FF08BD9A64004008B5054B1B7823B9FFF7E0FF84
:4022C0000122024B1A70FFF7ABFF08BDC181FF1F08B5FEF7ADFA044A137843F010031370FEF7AAFA08BD00BF9965004008B5044A137843F001031370FFF7EAFF08BD00BF16
:4023000079650040054B1A7802F0F8021A701A7800F0070010431870704700BF8965004008B50120FFF7EEFF08BD00BF08B5054B1B7823B9FFF7F4FF0122024B1A70FFF785
:40234000D5FF08BDC281FF1F014B1880704700BF0865004008B5FEF76BFA044A137843F010031370FEF768FA08BD00BF9564004008B5044A137843F001031370FFF7EAFF60
:4023800008BD00BF74640040054B1A7802F0F8021A701A7800F0070010431870704700BF8564004008B50120FFF7EEFF08BD00BF08B5054B1B7823B9FFF7F4FF0122024B0C
:4023C0001A70FFF7D5FF08BDC381FF1F014B1880704700BF0464004008B5FEF729FA044A137843F010031370FEF726FA08BD00BF9364004008B5044A137843F001031370C9
:40240000FFF7EAFF08BD00BF73640040054B1A7802F0F8021A701A7800F0070010431870704700BF8364004008B50120FFF7EEFF08BD00BF08B5054B1B7823B9FFF7F4FF1F
:402440000122024B1A70FFF7D5FF08BDC481FF1F014B1880704700BF02640040024A137843F08003137070477B640040014B1870704700BF8B640040014B1878704700BFBF
:402480006B640040014B1880704700BF54680040014B188880B2704794680040014B1880704700BF1468004008B501E0FFF7F0FFFFF7E2FF10F0080FF8D108BD08B540F69E
:4024C000C310FFF7DFFF40F6C310FFF7E7FFFEF7AFF9064A137843F010031370FEF7ACF9FFF7E2FF0120FFF7C1FF08BD9B64004008B5054B1B7823B9FFF7E0FF0122024B02
:402500001A70FFF7ABFF08BDC581FF1F08B5FEF78FF9044A137843F010031370FEF78CF908BD00BF9F64004008B5044A137843F001031370FFF7EAFF08BD00BF7F64004055
:40254000054B1A7802F0F8021A701A7800F0070010431870704700BF8F64004008B50120FFF7EEFF08BD00BF08B5054B1B7823B9FFF7F4FF0122024B1A70FFF7D5FF08BDC3
:40258000C681FF1F014B1880704700BF0E64004008B5FEF74DF9044A137843F010031370FEF74AF908BD00BF9D64004008B5044A137843F001031370FFF7EAFF08BD00BF60
:4025C0007D640040054B1A7802F0F8021A701A7800F0070010431870704700BF8D64004008B50120FFF7EEFF08BD00BF08B5054B1B7823B9FFF7F4FF0122024B1A70FFF7BD
:40260000D5FF08BDC781FF1F014B1880704700BF0C64004008B5124B1B7803F00303012B02D0022B04D00FE00D4B1B79DBB20CE00B4B1B7903F07F0303EB43039B00094A17
:4026400013449B78DBB200E00023074A1268D35C022B02D1FEF7F6FB08BD002008BD00BF0060004018E2FF1F04E2FF1F0E4B70B51E460E4C0025E41AA410A54204D056F83F
:40268000253098470135F8E700F0FCF8084B094C1E46E41AA4100025A54204D056F8253098470135F8E770BD9028000090280000902800009828000010B5431E0A4491425C
:4026C00004D011F8014B03F8014FF8E710BD03460244934202D003F8011BFAE7704700000000000000510040200030510040400000000140001000140140000800400140F4
:40270000000A004C0140000200500140200000003031323334353637383941424344454600000000010000002C2700000100000070280000000000000000000001000000BF
:4027400044270000010000002C280000030000007027000000000000000000000000000000000000000000006C270000020A000000008103400002000100820240000A00CB
:402780000100030240000A0002030000040309042C0343007900700072006500730073002000530065006D00690063006F006E0064007500630074006F00720010035500B1
:4027C0005300420055004100520054003803430044004300200043006F006D006D0075006E00690063006100740069006F006E00200049006E0074006500720066006100A4
:4028000063006500260343004400430020004400610074006100200049006E007400650072006600610063006500000009024300020101803209040000010202010305244F
:4028400000100104240202052406000105240100010705810340000109040100020A0000040705820240000007050302400000001201000202000008B40432F201000102B1
:4028800080010000F8B500BFF8BC08BC9E4670474D0000007D050000F8B500BFF8BC08BC9E46704729000000B82800000881FF1F380000006861000000000000FFFFFFFF1D
:4028C000FFFFFFFF0000E02EC05D00001800000000366E0100C2010000000800C201000000080000A12000000000020000000000000000000000000000000000000000009B
:402900000000000000000000000000000000000000000000000000000000000000000000000000000000000000000000000000000000000000000000000000000000000097
:402940000000000000000000000000000000000000000000000000000000000000000000000000000000000000000000000000000000000000000000000000000000000057
:402980000000000000000000000000000000000000000000000000000000000000000000000000000000000000000000000000000000000000000000000000000000000017
:4029C00000000000000000000000000000000000000000000000000000000000000000000000000000000000000000000000000000000000000000000000000000000000D7
:020000040003F7
:0200000480007A
:400000000145004003520040026400400101014038020140160301403D04014020050140050701404C08014024090140480A0140300B0140480C01402C0D01403E0E014004
:400040001D0F0140021501403C160140191701403C1801401B190140041B014008400140094101400A42014006430140054401400945014003460140074701400548014062
:4000800007490140014C01400A500140025101407E02601A610C7C408A0D8B0DE204410446B0480849FF4AFF4BFF4CEF4D554E704F48501C56085A095B045D995F016108D7
:4000C0006308650867086850690A6A406BA86CC06E406FA8C105C5C0C6DEC70FC81EC9FFCAFFCBFFCCEACD55CEF2CF48D01CD201DA0ADB0ADD99DF01E108E308E508E7089D
:40010000E850E90AEA40EBA8ECC0EE40EFA847024801490151A8571059015D205E4061A86405670A68016B0278047F048E40D080D208D631D83EDE22E2014105470B481015
:4001400049FF4AFF4BFF4CEF4D554E704F48501C52015A0B5B0B5D995F0161086308650867086850690A6A406BA86CC06E406FA89402A401B001B402BE11C104C50DC60E2D
:40018000C7CFC835C9FFCAFFCBFFCCEACD55CEF2CF48D01CD804DA08DB08DD99DF01E108E308E508E708E850E90AEA40EBA8ECC0EE40EFA80F2015081C401D20470248013F
:4001C0004F045104564857025E026648670468016B0278017A017B027F0193029801A310B120C220C420D080D208D680D870DE11E208E601B120B440E204EA40EE80402578
:40020000410649FF4AFF4BFF4F0150185A045F016040624064406540668068806A806C806E808001820A84028504860187018C018D1C8E128F02940196029C019D089E0664
:400240009F41A110A341A51FAF3CB010B103B204B31CB403B540B608B720BA20BF10C035C102C5ECC720C823C9FFCAFFCBFFCD83CE03CF01D018D280D804D904DA04DB0440
:40028000DC01DF01E040E240E440E540E680E880EA80EC80EE80008401020A11180419021A111B1021A423602A812B10318039083B4040044104472049054A024E024F20D1
:4002C000520372808840964099809D05A710C00DC205CA0BCC08CE0AD026D238E20409010B020D020F011501170A19011B0225012601270632013304350837033B8040634F
:40030000410149FF4AFF4BFF4F01501854015604580459045A045B045C115F056040624064406540668068806A806C806E808B019701B101BF01C063C104C5ECC620C80BED
:40034000C9FFCAFFCBFFCD83CE03CF01D018D280D401D604D904DA04DB04DF05E040E240E440E540E680E880EA80EC80EE80102012101908200121682302278029083128BA
:40038000370839803A103E20400142204620470248044B104F15562059055A405F856201678077407B107C0183108740958099809B089E219F40A024B340C404CA02CC46BF
:4003C000CE2CD0CAD224D6DBD881DE82EA2008080A01141C160218041A011C1F1F01241026012E1C3203341C35014104460B480449FF4AFF4BFF4CEF4D554E704F48501C4F
:400400005608580459045A0A5B045D995F0161086308650867086850690A6A406BA86CC06E406FA8C104C5C0C6DEC70FC81EC9FFCAFFCBFFCCEACD55CEF2CF48D01CD20190
:40044000DA0ADB0ADD99DF01E108E308E508E708E850E90AEA40EBA8ECC0EE40EFA807080D400E28162017401C081E282708374043014701490151285280564059015C10A8
:400480005F4061286280640967026B0178087C088010814084208D8097029C019E41AB20C040C2E0C4A0CC10D081D631D83EDE42E202E641EC0400010101330134013E10E5
:4004C0003F04410547B0482049FF4AFF4BFF4CEF4D554E704F48501C580459045A0B5D095F0161086308650867086850690A6A406BA86CC06E406FA8C104C5EDC60CC70F0F
:40050000C817C9FFCAFFCBFFCCEACD55CEF2CF48D01CD201DA08DB08DD99DF01E108E308E508E708E850E90AEA40EBA8ECC0EE40EFA802401B20202029022B8038024701DA
:4005400048024F055001560857805D02660867056C026F0178017F0182018410C008CE01D080D208D680D870DE11E008B640E6080D0135013F104104460B480449FF4AFF10
:400580004BFF4CEF4D554E704F48501C560859045A085B045D995F0161086308650867086850690A6A406BA86CC06E406FA8C105C5C0C6DEC70FC81EC9FFCAFFCBFFCCEA3C
:4005C000CD55CEF2CF48D01CD201DA0BDB0BDD99DF01E108E308E508E708E850E90AEA40EBA8ECC0EE40EFA826203F8047024801490151A8574059015E4061A864016702D9
:4006000068016B0278017F018220CE10D080D208D611D81EDE11EA02EE020D0137013F404104460B480449FF4AFF4BFF4CEF4D554E704F48501C560859045A085B045D9907
:400640005F0161086308650867086850690A6A406BA86CC06E406FA8C105C5C0C6DEC70FC81EC9FFCAFFCBFFCCEACD55CEF2CF48D01CD201DA0BDB0BDD99DF01E108E30828
:40068000E508E708E850E90AEA40EBA8ECC0EE40EFA826803F8047024801490151A8574059015D8061A86401670268016B0278017F019980B520B640CE10D080D208D61184
:4006C000D81EDE11EA02EE028680A280B580EE403242358037083B208180CCF0CE10E220331037208202968097209F08A602CC30E2805380562082408708968097209F3878
:40070000D460E210E680831097209F30B220B780E22070017F028702DC01DE04012003100781812087018F10A801C00FE6029B80B120EA040B440F8083408B809B80C20E7A
:40074000E6048004AF30E680EA40EE407004750285029008DC80DE20E610AF440003010109010B010C030E010F0111011B011D0100FF012A3F003F3F3F003F000000000027
:400780004000000000000000C00000000F0000000000000000000000000000000000000000000000000000000000000000000000000000000000000000000000000000002A
:4007C00000000000000000000000000000000000000000000000000000000000000000000000000000000000000000000000000000000000000000000000000000000000F9
:4008000000000000000000000000000000000000000000000000000000000000000000000000000000000000000000000000000000000000000000000000000000000000B8
:400840000000000000000000000000000000000000000000000000000000000000000000000000000000000000000000000000000000000000000000000000000000000078
:400880000000000000000000000000000000000000000000000000000000000000000000000000000000000000000000000000000000000000000000000000000000000038
:0200000490006A
:0400000000004005B7
:0200000490105A
:04000000BC90ACAF55
:0200000490303A
:0200000056FFA9
:0200000490402A
:4000000000000000000000000000000000000000000000000000000000000000000000000000000000000000000000000000000000000000000000000000000000000000C0
:400040000000000000000000000000000000000000000000000000000000000000000000000000000000000000000000000000000000000000000000000000000000000080
:400080000000000000000000000000000000000000000000000000000000000000000000000000000000000000000000000000000000000000000000000000000000000040
:4000C0000000000000000000000000000000000000000000000000000000000000000000000000000000000000000000000000000000000000000000000000000000000000
:0200000490501A
:0C00000000012E16106900012E28676810
:00000001FF